{
  "_format": "hh3-artifact-1",
  "contractName": "Course",
  "sourceName": "contracts/Course.sol",
  "abi": [
    {
      "inputs": [
        {
          "internalType": "address payable",
          "name": "_ydTokenAddress",
          "type": "address"
        }
      ],
      "stateMutability": "nonpayable",
      "type": "constructor"
    },
    {
      "inputs": [
        {
          "internalType": "address",
          "name": "owner",
          "type": "address"
        }
      ],
      "name": "OwnableInvalidOwner",
      "type": "error"
    },
    {
      "inputs": [
        {
          "internalType": "address",
          "name": "account",
          "type": "address"
        }
      ],
      "name": "OwnableUnauthorizedAccount",
      "type": "error"
    },
    {
      "inputs": [],
      "name": "ReentrancyGuardReentrantCall",
      "type": "error"
    },
    {
      "anonymous": false,
      "inputs": [
        {
          "indexed": true,
          "internalType": "uint256",
          "name": "categoryId",
          "type": "uint256"
        },
        {
          "indexed": false,
          "internalType": "string",
          "name": "name",
          "type": "string"
        }
      ],
      "name": "CategoryCreated",
      "type": "event"
    },
    {
      "anonymous": false,
      "inputs": [
        {
          "indexed": true,
          "internalType": "uint256",
          "name": "categoryId",
          "type": "uint256"
        },
        {
          "indexed": false,
          "internalType": "string",
          "name": "name",
          "type": "string"
        }
      ],
      "name": "CategoryUpdated",
      "type": "event"
    },
    {
      "anonymous": false,
      "inputs": [
        {
          "indexed": true,
          "internalType": "uint256",
          "name": "courseId",
          "type": "uint256"
        },
        {
          "indexed": false,
          "internalType": "string",
          "name": "title",
          "type": "string"
        },
        {
          "indexed": true,
          "internalType": "address",
          "name": "instructor",
          "type": "address"
        },
        {
          "indexed": false,
          "internalType": "uint256",
          "name": "priceYDT",
          "type": "uint256"
        },
        {
          "indexed": false,
          "internalType": "uint256",
          "name": "categoryId",
          "type": "uint256"
        }
      ],
      "name": "CourseCreated",
      "type": "event"
    },
    {
      "anonymous": false,
      "inputs": [
        {
          "indexed": true,
          "internalType": "uint256",
          "name": "courseId",
          "type": "uint256"
        }
      ],
      "name": "CourseDeactivated",
      "type": "event"
    },
    {
      "anonymous": false,
      "inputs": [
        {
          "indexed": true,
          "internalType": "uint256",
          "name": "courseId",
          "type": "uint256"
        },
        {
          "indexed": true,
          "internalType": "address",
          "name": "student",
          "type": "address"
        },
        {
          "indexed": false,
          "internalType": "uint256",
          "name": "priceYDT",
          "type": "uint256"
        },
        {
          "indexed": false,
          "internalType": "uint256",
          "name": "timestamp",
          "type": "uint256"
        },
        {
          "indexed": false,
          "internalType": "address",
          "name": "referrer",
          "type": "address"
        }
      ],
      "name": "CoursePurchased",
      "type": "event"
    },
    {
      "anonymous": false,
      "inputs": [
        {
          "indexed": true,
          "internalType": "uint256",
          "name": "courseId",
          "type": "uint256"
        },
        {
          "indexed": true,
          "internalType": "address",
          "name": "student",
          "type": "address"
        },
        {
          "indexed": false,
          "internalType": "uint8",
          "name": "score",
          "type": "uint8"
        },
        {
          "indexed": false,
          "internalType": "string",
          "name": "comment",
          "type": "string"
        }
      ],
      "name": "CourseRated",
      "type": "event"
    },
    {
      "anonymous": false,
      "inputs": [
        {
          "indexed": true,
          "internalType": "uint256",
          "name": "courseId",
          "type": "uint256"
        },
        {
          "indexed": false,
          "internalType": "string",
          "name": "title",
          "type": "string"
        },
        {
          "indexed": false,
          "internalType": "uint256",
          "name": "priceYDT",
          "type": "uint256"
        }
      ],
      "name": "CourseUpdated",
      "type": "event"
    },
    {
      "anonymous": false,
      "inputs": [
        {
          "indexed": true,
          "internalType": "address",
          "name": "instructor",
          "type": "address"
        }
      ],
      "name": "InstructorCertified",
      "type": "event"
    },
    {
      "anonymous": false,
      "inputs": [
        {
          "indexed": true,
          "internalType": "address",
          "name": "instructor",
          "type": "address"
        }
      ],
      "name": "InstructorDecertified",
      "type": "event"
    },
    {
      "anonymous": false,
      "inputs": [
        {
          "indexed": true,
          "internalType": "address",
          "name": "previousOwner",
          "type": "address"
        },
        {
          "indexed": true,
          "internalType": "address",
          "name": "newOwner",
          "type": "address"
        }
      ],
      "name": "OwnershipTransferred",
      "type": "event"
    },
    {
      "anonymous": false,
      "inputs": [
        {
          "indexed": true,
          "internalType": "address",
          "name": "referrer",
          "type": "address"
        },
        {
          "indexed": true,
          "internalType": "address",
          "name": "referee",
          "type": "address"
        },
        {
          "indexed": false,
          "internalType": "uint256",
          "name": "amount",
          "type": "uint256"
        }
      ],
      "name": "ReferralRewardPaid",
      "type": "event"
    },
    {
      "anonymous": false,
      "inputs": [
        {
          "indexed": true,
          "internalType": "uint256",
          "name": "courseId",
          "type": "uint256"
        },
        {
          "indexed": true,
          "internalType": "address",
          "name": "student",
          "type": "address"
        },
        {
          "indexed": false,
          "internalType": "uint256",
          "name": "amount",
          "type": "uint256"
        }
      ],
      "name": "RefundIssued",
      "type": "event"
    },
    {
      "anonymous": false,
      "inputs": [
        {
          "indexed": true,
          "internalType": "address",
          "name": "user",
          "type": "address"
        },
        {
          "indexed": false,
          "internalType": "uint256",
          "name": "duration",
          "type": "uint256"
        },
        {
          "indexed": false,
          "internalType": "uint256",
          "name": "endTime",
          "type": "uint256"
        }
      ],
      "name": "SubscriptionPurchased",
      "type": "event"
    },
    {
      "inputs": [],
      "name": "bulkDiscountPercent",
      "outputs": [
        {
          "internalType": "uint256",
          "name": "",
          "type": "uint256"
        }
      ],
      "stateMutability": "view",
      "type": "function"
    },
    {
      "inputs": [],
      "name": "bulkDiscountThreshold",
      "outputs": [
        {
          "internalType": "uint256",
          "name": "",
          "type": "uint256"
        }
      ],
      "stateMutability": "view",
      "type": "function"
    },
    {
      "inputs": [
        {
          "internalType": "uint256",
          "name": "",
          "type": "uint256"
        }
      ],
      "name": "categories",
      "outputs": [
        {
          "internalType": "uint256",
          "name": "id",
          "type": "uint256"
        },
        {
          "internalType": "string",
          "name": "name",
          "type": "string"
        },
        {
          "internalType": "bool",
          "name": "isActive",
          "type": "bool"
        }
      ],
      "stateMutability": "view",
      "type": "function"
    },
    {
      "inputs": [],
      "name": "categoryCounter",
      "outputs": [
        {
          "internalType": "uint256",
          "name": "",
          "type": "uint256"
        }
      ],
      "stateMutability": "view",
      "type": "function"
    },
    {
      "inputs": [
        {
          "internalType": "address",
          "name": "",
          "type": "address"
        }
      ],
      "name": "certifiedInstructors",
      "outputs": [
        {
          "internalType": "bool",
          "name": "",
          "type": "bool"
        }
      ],
      "stateMutability": "view",
      "type": "function"
    },
    {
      "inputs": [
        {
          "internalType": "address",
          "name": "_instructor",
          "type": "address"
        }
      ],
      "name": "certifyInstructor",
      "outputs": [],
      "stateMutability": "nonpayable",
      "type": "function"
    },
    {
      "inputs": [],
      "name": "courseCounter",
      "outputs": [
        {
          "internalType": "uint256",
          "name": "",
          "type": "uint256"
        }
      ],
      "stateMutability": "view",
      "type": "function"
    },
    {
      "inputs": [
        {
          "internalType": "uint256",
          "name": "",
          "type": "uint256"
        },
        {
          "internalType": "address",
          "name": "",
          "type": "address"
        }
      ],
      "name": "courseRatings",
      "outputs": [
        {
          "internalType": "uint8",
          "name": "score",
          "type": "uint8"
        },
        {
          "internalType": "string",
          "name": "comment",
          "type": "string"
        },
        {
          "internalType": "uint256",
          "name": "timestamp",
          "type": "uint256"
        }
      ],
      "stateMutability": "view",
      "type": "function"
    },
    {
      "inputs": [
        {
          "internalType": "uint256",
          "name": "",
          "type": "uint256"
        }
      ],
      "name": "courses",
      "outputs": [
        {
          "internalType": "uint256",
          "name": "id",
          "type": "uint256"
        },
        {
          "internalType": "string",
          "name": "title",
          "type": "string"
        },
        {
          "internalType": "string",
          "name": "description",
          "type": "string"
        },
        {
          "internalType": "string",
          "name": "coverUrl",
          "type": "string"
        },
        {
          "internalType": "uint256",
          "name": "priceYDT",
          "type": "uint256"
        },
        {
          "internalType": "address",
          "name": "instructor",
          "type": "address"
        },
        {
          "internalType": "bool",
          "name": "isActive",
          "type": "bool"
        },
        {
          "internalType": "uint256",
          "name": "createdAt",
          "type": "uint256"
        },
        {
          "internalType": "uint256",
          "name": "totalStudents",
          "type": "uint256"
        },
        {
          "internalType": "uint256",
          "name": "categoryId",
          "type": "uint256"
        },
        {
          "internalType": "uint256",
          "name": "totalRating",
          "type": "uint256"
        },
        {
          "internalType": "uint256",
          "name": "ratingCount",
          "type": "uint256"
        }
      ],
      "stateMutability": "view",
      "type": "function"
    },
    {
      "inputs": [
        {
          "internalType": "string",
          "name": "_name",
          "type": "string"
        }
      ],
      "name": "createCategory",
      "outputs": [
        {
          "internalType": "uint256",
          "name": "",
          "type": "uint256"
        }
      ],
      "stateMutability": "nonpayable",
      "type": "function"
    },
    {
      "inputs": [
        {
          "internalType": "string",
          "name": "_title",
          "type": "string"
        },
        {
          "internalType": "string",
          "name": "_description",
          "type": "string"
        },
        {
          "internalType": "string",
          "name": "_coverUrl",
          "type": "string"
        },
        {
          "internalType": "uint256",
          "name": "_priceYDT",
          "type": "uint256"
        },
        {
          "internalType": "uint256",
          "name": "_categoryId",
          "type": "uint256"
        }
      ],
      "name": "createCourse",
      "outputs": [
        {
          "internalType": "uint256",
          "name": "",
          "type": "uint256"
        }
      ],
      "stateMutability": "nonpayable",
      "type": "function"
    },
    {
      "inputs": [
        {
          "internalType": "uint256",
          "name": "_courseId",
          "type": "uint256"
        }
      ],
      "name": "deactivateCourse",
      "outputs": [],
      "stateMutability": "nonpayable",
      "type": "function"
    },
    {
      "inputs": [
        {
          "internalType": "address",
          "name": "_instructor",
          "type": "address"
        }
      ],
      "name": "decertifyInstructor",
      "outputs": [],
      "stateMutability": "nonpayable",
      "type": "function"
    },
    {
      "inputs": [
        {
          "internalType": "uint256",
          "name": "_offset",
          "type": "uint256"
        },
        {
          "internalType": "uint256",
          "name": "_limit",
          "type": "uint256"
        }
      ],
      "name": "getActiveCourses",
      "outputs": [
        {
          "components": [
            {
              "internalType": "uint256",
              "name": "id",
              "type": "uint256"
            },
            {
              "internalType": "string",
              "name": "title",
              "type": "string"
            },
            {
              "internalType": "string",
              "name": "description",
              "type": "string"
            },
            {
              "internalType": "string",
              "name": "coverUrl",
              "type": "string"
            },
            {
              "internalType": "uint256",
              "name": "priceYDT",
              "type": "uint256"
            },
            {
              "internalType": "address",
              "name": "instructor",
              "type": "address"
            },
            {
              "internalType": "bool",
              "name": "isActive",
              "type": "bool"
            },
            {
              "internalType": "uint256",
              "name": "createdAt",
              "type": "uint256"
            },
            {
              "internalType": "uint256",
              "name": "totalStudents",
              "type": "uint256"
            },
            {
              "internalType": "uint256",
              "name": "categoryId",
              "type": "uint256"
            },
            {
              "internalType": "uint256",
              "name": "totalRating",
              "type": "uint256"
            },
            {
              "internalType": "uint256",
              "name": "ratingCount",
              "type": "uint256"
            }
          ],
          "internalType": "struct Course.CourseInfo[]",
          "name": "",
          "type": "tuple[]"
        }
      ],
      "stateMutability": "view",
      "type": "function"
    },
    {
      "inputs": [
        {
          "internalType": "uint256",
          "name": "_courseId",
          "type": "uint256"
        }
      ],
      "name": "getCourse",
      "outputs": [
        {
          "components": [
            {
              "internalType": "uint256",
              "name": "id",
              "type": "uint256"
            },
            {
              "internalType": "string",
              "name": "title",
              "type": "string"
            },
            {
              "internalType": "string",
              "name": "description",
              "type": "string"
            },
            {
              "internalType": "string",
              "name": "coverUrl",
              "type": "string"
            },
            {
              "internalType": "uint256",
              "name": "priceYDT",
              "type": "uint256"
            },
            {
              "internalType": "address",
              "name": "instructor",
              "type": "address"
            },
            {
              "internalType": "bool",
              "name": "isActive",
              "type": "bool"
            },
            {
              "internalType": "uint256",
              "name": "createdAt",
              "type": "uint256"
            },
            {
              "internalType": "uint256",
              "name": "totalStudents",
              "type": "uint256"
            },
            {
              "internalType": "uint256",
              "name": "categoryId",
              "type": "uint256"
            },
            {
              "internalType": "uint256",
              "name": "totalRating",
              "type": "uint256"
            },
            {
              "internalType": "uint256",
              "name": "ratingCount",
              "type": "uint256"
            }
          ],
          "internalType": "struct Course.CourseInfo",
          "name": "",
          "type": "tuple"
        }
      ],
      "stateMutability": "view",
      "type": "function"
    },
    {
      "inputs": [
        {
          "internalType": "uint256",
          "name": "_courseId",
          "type": "uint256"
        }
      ],
      "name": "getCourseAverageRating",
      "outputs": [
        {
          "internalType": "uint256",
          "name": "average",
          "type": "uint256"
        },
        {
          "internalType": "uint256",
          "name": "count",
          "type": "uint256"
        }
      ],
      "stateMutability": "view",
      "type": "function"
    },
    {
      "inputs": [
        {
          "internalType": "uint256",
          "name": "_categoryId",
          "type": "uint256"
        },
        {
          "internalType": "uint256",
          "name": "_offset",
          "type": "uint256"
        },
        {
          "internalType": "uint256",
          "name": "_limit",
          "type": "uint256"
        }
      ],
      "name": "getCoursesByCategory",
      "outputs": [
        {
          "components": [
            {
              "internalType": "uint256",
              "name": "id",
              "type": "uint256"
            },
            {
              "internalType": "string",
              "name": "title",
              "type": "string"
            },
            {
              "internalType": "string",
              "name": "description",
              "type": "string"
            },
            {
              "internalType": "string",
              "name": "coverUrl",
              "type": "string"
            },
            {
              "internalType": "uint256",
              "name": "priceYDT",
              "type": "uint256"
            },
            {
              "internalType": "address",
              "name": "instructor",
              "type": "address"
            },
            {
              "internalType": "bool",
              "name": "isActive",
              "type": "bool"
            },
            {
              "internalType": "uint256",
              "name": "createdAt",
              "type": "uint256"
            },
            {
              "internalType": "uint256",
              "name": "totalStudents",
              "type": "uint256"
            },
            {
              "internalType": "uint256",
              "name": "categoryId",
              "type": "uint256"
            },
            {
              "internalType": "uint256",
              "name": "totalRating",
              "type": "uint256"
            },
            {
              "internalType": "uint256",
              "name": "ratingCount",
              "type": "uint256"
            }
          ],
          "internalType": "struct Course.CourseInfo[]",
          "name": "",
          "type": "tuple[]"
        }
      ],
      "stateMutability": "view",
      "type": "function"
    },
    {
      "inputs": [
        {
          "internalType": "address",
          "name": "_instructor",
          "type": "address"
        }
      ],
      "name": "getInstructorCourses",
      "outputs": [
        {
          "internalType": "uint256[]",
          "name": "",
          "type": "uint256[]"
        }
      ],
      "stateMutability": "view",
      "type": "function"
    },
    {
      "inputs": [
        {
          "internalType": "uint256",
          "name": "_courseId",
          "type": "uint256"
        },
        {
          "internalType": "address",
          "name": "_student",
          "type": "address"
        }
      ],
      "name": "getPurchaseRecord",
      "outputs": [
        {
          "components": [
            {
              "internalType": "uint256",
              "name": "courseId",
              "type": "uint256"
            },
            {
              "internalType": "uint256",
              "name": "purchaseTime",
              "type": "uint256"
            },
            {
              "internalType": "uint256",
              "name": "pricePaid",
              "type": "uint256"
            },
            {
              "internalType": "bool",
              "name": "refunded",
              "type": "bool"
            },
            {
              "internalType": "address",
              "name": "referrer",
              "type": "address"
            }
          ],
          "internalType": "struct Course.PurchaseRecord",
          "name": "",
          "type": "tuple"
        }
      ],
      "stateMutability": "view",
      "type": "function"
    },
    {
      "inputs": [
        {
          "internalType": "address",
          "name": "_student",
          "type": "address"
        }
      ],
      "name": "getStudentCourses",
      "outputs": [
        {
          "internalType": "uint256[]",
          "name": "",
          "type": "uint256[]"
        }
      ],
      "stateMutability": "view",
      "type": "function"
    },
    {
      "inputs": [
        {
          "internalType": "uint256",
          "name": "_courseId",
          "type": "uint256"
        },
        {
          "internalType": "address",
          "name": "_user",
          "type": "address"
        }
      ],
      "name": "getUserRating",
      "outputs": [
        {
          "components": [
            {
              "internalType": "uint8",
              "name": "score",
              "type": "uint8"
            },
            {
              "internalType": "string",
              "name": "comment",
              "type": "string"
            },
            {
              "internalType": "uint256",
              "name": "timestamp",
              "type": "uint256"
            }
          ],
          "internalType": "struct Course.Rating",
          "name": "",
          "type": "tuple"
        }
      ],
      "stateMutability": "view",
      "type": "function"
    },
    {
      "inputs": [
        {
          "internalType": "address",
          "name": "_user",
          "type": "address"
        }
      ],
      "name": "hasActiveSubscription",
      "outputs": [
        {
          "internalType": "bool",
          "name": "",
          "type": "bool"
        }
      ],
      "stateMutability": "view",
      "type": "function"
    },
    {
      "inputs": [
        {
          "internalType": "uint256",
          "name": "",
          "type": "uint256"
        },
        {
          "internalType": "address",
          "name": "",
          "type": "address"
        }
      ],
      "name": "hasPurchased",
      "outputs": [
        {
          "internalType": "bool",
          "name": "",
          "type": "bool"
        }
      ],
      "stateMutability": "view",
      "type": "function"
    },
    {
      "inputs": [
        {
          "internalType": "uint256",
          "name": "_courseId",
          "type": "uint256"
        },
        {
          "internalType": "address",
          "name": "_user",
          "type": "address"
        }
      ],
      "name": "hasUserPurchased",
      "outputs": [
        {
          "internalType": "bool",
          "name": "",
          "type": "bool"
        }
      ],
      "stateMutability": "view",
      "type": "function"
    },
    {
      "inputs": [
        {
          "internalType": "address",
          "name": "",
          "type": "address"
        },
        {
          "internalType": "uint256",
          "name": "",
          "type": "uint256"
        }
      ],
      "name": "instructorCourses",
      "outputs": [
        {
          "internalType": "uint256",
          "name": "",
          "type": "uint256"
        }
      ],
      "stateMutability": "view",
      "type": "function"
    },
    {
      "inputs": [],
      "name": "monthlySubscriptionPrice",
      "outputs": [
        {
          "internalType": "uint256",
          "name": "",
          "type": "uint256"
        }
      ],
      "stateMutability": "view",
      "type": "function"
    },
    {
      "inputs": [],
      "name": "owner",
      "outputs": [
        {
          "internalType": "address",
          "name": "",
          "type": "address"
        }
      ],
      "stateMutability": "view",
      "type": "function"
    },
    {
      "inputs": [],
      "name": "platformFeePercent",
      "outputs": [
        {
          "internalType": "uint256",
          "name": "",
          "type": "uint256"
        }
      ],
      "stateMutability": "view",
      "type": "function"
    },
    {
      "inputs": [
        {
          "internalType": "uint256",
          "name": "_courseId",
          "type": "uint256"
        },
        {
          "internalType": "address",
          "name": "_referrer",
          "type": "address"
        }
      ],
      "name": "purchaseCourse",
      "outputs": [],
      "stateMutability": "nonpayable",
      "type": "function"
    },
    {
      "inputs": [
        {
          "internalType": "uint256[]",
          "name": "_courseIds",
          "type": "uint256[]"
        },
        {
          "internalType": "address",
          "name": "_referrer",
          "type": "address"
        }
      ],
      "name": "purchaseCoursesBulk",
      "outputs": [],
      "stateMutability": "nonpayable",
      "type": "function"
    },
    {
      "inputs": [],
      "name": "purchaseMonthlySubscription",
      "outputs": [],
      "stateMutability": "nonpayable",
      "type": "function"
    },
    {
      "inputs": [
        {
          "internalType": "uint256",
          "name": "",
          "type": "uint256"
        },
        {
          "internalType": "address",
          "name": "",
          "type": "address"
        }
      ],
      "name": "purchaseRecords",
      "outputs": [
        {
          "internalType": "uint256",
          "name": "courseId",
          "type": "uint256"
        },
        {
          "internalType": "uint256",
          "name": "purchaseTime",
          "type": "uint256"
        },
        {
          "internalType": "uint256",
          "name": "pricePaid",
          "type": "uint256"
        },
        {
          "internalType": "bool",
          "name": "refunded",
          "type": "bool"
        },
        {
          "internalType": "address",
          "name": "referrer",
          "type": "address"
        }
      ],
      "stateMutability": "view",
      "type": "function"
    },
    {
      "inputs": [],
      "name": "purchaseYearlySubscription",
      "outputs": [],
      "stateMutability": "nonpayable",
      "type": "function"
    },
    {
      "inputs": [
        {
          "internalType": "uint256",
          "name": "_courseId",
          "type": "uint256"
        },
        {
          "internalType": "uint8",
          "name": "_score",
          "type": "uint8"
        },
        {
          "internalType": "string",
          "name": "_comment",
          "type": "string"
        }
      ],
      "name": "rateCourse",
      "outputs": [],
      "stateMutability": "nonpayable",
      "type": "function"
    },
    {
      "inputs": [],
      "name": "referralRewardPercent",
      "outputs": [
        {
          "internalType": "uint256",
          "name": "",
          "type": "uint256"
        }
      ],
      "stateMutability": "view",
      "type": "function"
    },
    {
      "inputs": [
        {
          "internalType": "address",
          "name": "",
          "type": "address"
        }
      ],
      "name": "referralRewards",
      "outputs": [
        {
          "internalType": "uint256",
          "name": "",
          "type": "uint256"
        }
      ],
      "stateMutability": "view",
      "type": "function"
    },
    {
      "inputs": [],
      "name": "refundPeriod",
      "outputs": [
        {
          "internalType": "uint256",
          "name": "",
          "type": "uint256"
        }
      ],
      "stateMutability": "view",
      "type": "function"
    },
    {
      "inputs": [],
      "name": "renounceOwnership",
      "outputs": [],
      "stateMutability": "nonpayable",
      "type": "function"
    },
    {
      "inputs": [
        {
          "internalType": "uint256",
          "name": "_courseId",
          "type": "uint256"
        }
      ],
      "name": "requestRefund",
      "outputs": [],
      "stateMutability": "nonpayable",
      "type": "function"
    },
    {
      "inputs": [],
      "name": "requireCertification",
      "outputs": [
        {
          "internalType": "bool",
          "name": "",
          "type": "bool"
        }
      ],
      "stateMutability": "view",
      "type": "function"
    },
    {
      "inputs": [
        {
          "internalType": "uint256",
          "name": "_threshold",
          "type": "uint256"
        },
        {
          "internalType": "uint256",
          "name": "_discountPercent",
          "type": "uint256"
        }
      ],
      "name": "setBulkDiscountSettings",
      "outputs": [],
      "stateMutability": "nonpayable",
      "type": "function"
    },
    {
      "inputs": [
        {
          "internalType": "uint256",
          "name": "_feePercent",
          "type": "uint256"
        }
      ],
      "name": "setPlatformFee",
      "outputs": [],
      "stateMutability": "nonpayable",
      "type": "function"
    },
    {
      "inputs": [
        {
          "internalType": "uint256",
          "name": "_percent",
          "type": "uint256"
        }
      ],
      "name": "setReferralRewardPercent",
      "outputs": [],
      "stateMutability": "nonpayable",
      "type": "function"
    },
    {
      "inputs": [
        {
          "internalType": "uint256",
          "name": "_period",
          "type": "uint256"
        }
      ],
      "name": "setRefundPeriod",
      "outputs": [],
      "stateMutability": "nonpayable",
      "type": "function"
    },
    {
      "inputs": [
        {
          "internalType": "bool",
          "name": "_required",
          "type": "bool"
        }
      ],
      "name": "setRequireCertification",
      "outputs": [],
      "stateMutability": "nonpayable",
      "type": "function"
    },
    {
      "inputs": [
        {
          "internalType": "uint256",
          "name": "_monthlyPrice",
          "type": "uint256"
        },
        {
          "internalType": "uint256",
          "name": "_yearlyPrice",
          "type": "uint256"
        }
      ],
      "name": "setSubscriptionPrices",
      "outputs": [],
      "stateMutability": "nonpayable",
      "type": "function"
    },
    {
      "inputs": [
        {
          "internalType": "address",
          "name": "",
          "type": "address"
        },
        {
          "internalType": "uint256",
          "name": "",
          "type": "uint256"
        }
      ],
      "name": "studentCourses",
      "outputs": [
        {
          "internalType": "uint256",
          "name": "",
          "type": "uint256"
        }
      ],
      "stateMutability": "view",
      "type": "function"
    },
    {
      "inputs": [
        {
          "internalType": "address",
          "name": "",
          "type": "address"
        }
      ],
      "name": "subscriptions",
      "outputs": [
        {
          "internalType": "uint256",
          "name": "startTime",
          "type": "uint256"
        },
        {
          "internalType": "uint256",
          "name": "endTime",
          "type": "uint256"
        },
        {
          "internalType": "bool",
          "name": "isActive",
          "type": "bool"
        }
      ],
      "stateMutability": "view",
      "type": "function"
    },
    {
      "inputs": [
        {
          "internalType": "address",
          "name": "newOwner",
          "type": "address"
        }
      ],
      "name": "transferOwnership",
      "outputs": [],
      "stateMutability": "nonpayable",
      "type": "function"
    },
    {
      "inputs": [
        {
          "internalType": "uint256",
          "name": "_categoryId",
          "type": "uint256"
        },
        {
          "internalType": "string",
          "name": "_name",
          "type": "string"
        },
        {
          "internalType": "bool",
          "name": "_isActive",
          "type": "bool"
        }
      ],
      "name": "updateCategory",
      "outputs": [],
      "stateMutability": "nonpayable",
      "type": "function"
    },
    {
      "inputs": [
        {
          "internalType": "uint256",
          "name": "_courseId",
          "type": "uint256"
        },
        {
          "internalType": "string",
          "name": "_title",
          "type": "string"
        },
        {
          "internalType": "string",
          "name": "_description",
          "type": "string"
        },
        {
          "internalType": "string",
          "name": "_coverUrl",
          "type": "string"
        },
        {
          "internalType": "uint256",
          "name": "_priceYDT",
          "type": "uint256"
        },
        {
          "internalType": "uint256",
          "name": "_categoryId",
          "type": "uint256"
        }
      ],
      "name": "updateCourse",
      "outputs": [],
      "stateMutability": "nonpayable",
      "type": "function"
    },
    {
      "inputs": [],
      "name": "ydToken",
      "outputs": [
        {
          "internalType": "contract YDToken",
          "name": "",
          "type": "address"
        }
      ],
      "stateMutability": "view",
      "type": "function"
    },
    {
      "inputs": [],
      "name": "yearlySubscriptionPrice",
      "outputs": [
        {
          "internalType": "uint256",
          "name": "",
          "type": "uint256"
        }
      ],
      "stateMutability": "view",
      "type": "function"
    }
  ],
  "bytecode": "0x60806040526005600f81905562093a8060105560115568056bc75e2d63100000601255683635c9adc5dea000006013556003601455600a6015556016805460ff1916905534801561004e575f5ffd5b5060405161451738038061451783398101604081905261006d91610114565b338061009257604051631e4fbdf760e01b81525f600482015260240160405180910390fd5b61009b816100c5565b5060018055600280546001600160a01b0319166001600160a01b0392909216919091179055610141565b5f80546001600160a01b038381166001600160a01b0319831681178455604051919092169283917f8be0079c531659141344cd1fd0a4f28419497f9722a3daafe3b4186f6b6457e09190a35050565b5f60208284031215610124575f5ffd5b81516001600160a01b038116811461013a575f5ffd5b9392505050565b6143c98061014e5f395ff3fe608060405234801561000f575f5ffd5b5060043610610319575f3560e01c8063855df635116101af578063c66c5db8116100fe578063e1a29d1c1161009e578063fb9548cd11610079578063fb9548cd146107dc578063fc0cfbea146107ef578063fd95cc51146107fc578063ff8fbfc91461080f575f5ffd5b8063e1a29d1c14610768578063f046395a1461077b578063f2fde38b146107c9575f5ffd5b8063d40761e4116100d9578063d40761e414610702578063dc29868214610715578063dc9da2f814610728578063deb973c314610755575f5ffd5b8063c66c5db8146106b5578063c6cdbe5e146106d7578063d036e0d9146106f9575f5ffd5b8063a4b2409e11610169578063a9cd6a0011610144578063a9cd6a00146105f7578063ac85495d1461067c578063b9c5c0221461068f578063bebe4a57146106a2575f5ffd5b8063a4b2409e146105d2578063a6a3b5b4146105e5578063a7eee48a146105ee575f5ffd5b8063855df635146105415780638c639a85146105545780638da5cb5b1461055d578063937f7b631461058157806396f979d214610594578063985bf63a146105bf575f5ffd5b80632c05efc51161026b5780635d31f1e811610225578063715018a611610200578063715018a61461051f57806371a145d614610527578063781c372b1461053057806382216fbd14610538575f5ffd5b80635d31f1e8146104e657806366224d8e146104f95780636ceff2191461050c575f5ffd5b80632c05efc51461043f5780632c412e1a1461046157806344674e4314610474578063457131d71461049457806353aaa63b146104a75780635942d68d146104c6575f5ffd5b80630b91e28d116102d65780631c6cb65e116102b15780631c6cb65e146103d1578063239d44b5146103f9578063260492cf1461040c57806328d2a7a31461042c575f5ffd5b80630b91e28d1461039657806312e8e2c3146103b65780631b3d7e1c146103c9575f5ffd5b8063028f55781461031d57806303624fc01461034557806304e92c9e1461035c57806309e772641461036f5780630a21b1ac146103785780630ad929491461038d575b5f5ffd5b61033061032b36600461393c565b61086a565b60405190151581526020015b60405180910390f35b61034e600e5481565b60405190815260200161033c565b61034e61036a366004613a15565b610896565b61034e60155481565b61038b610386366004613ab1565b610bb6565b005b61034e60115481565b6103a96103a4366004613ab1565b610bc3565b60405161033c9190613bc9565b61038b6103c4366004613ab1565b610e0a565b61038b610e60565b6103e46103df366004613ab1565b611026565b6040805192835260208301919091520161033c565b61038b610407366004613bdb565b6110ab565b61041f61041a36600461393c565b6111ee565b60405161033c9190613c81565b61038b61043a366004613ab1565b6112eb565b61045261044d36600461393c565b611349565b60405161033c93929190613cbf565b61038b61046f366004613cea565b611400565b610487610482366004613d9e565b6119d0565b60405161033c9190613db7565b61038b6104a2366004613e06565b611a39565b61034e6104b5366004613d9e565b600c6020525f908152604090205481565b6104d96104d4366004613e21565b611a54565b60405161033c9190613e41565b6104d96104f4366004613ea4565b611e33565b61038b610507366004613ecd565b61224a565b61034e61051a366004613f23565b612325565b61038b612350565b61034e60145481565b61038b612361565b61034e600d5481565b61038b61054f366004613d9e565b61251a565b61034e600f5481565b5f546001600160a01b03165b6040516001600160a01b03909116815260200161033c565b61038b61058f366004613f4b565b61256a565b6105a76105a2366004613ab1565b612795565b60405161033c9c9b9a99989796959493929190613fa4565b61038b6105cd36600461393c565b612992565b61038b6105e0366004613ab1565b612ecc565b61034e60105481565b61034e60135481565b61064961060536600461393c565b600760209081525f928352604080842090915290825290208054600182015460028301546003909301549192909160ff81169061010090046001600160a01b031685565b60408051958652602086019490945292840191909152151560608301526001600160a01b0316608082015260a00161033c565b61038b61068a366004613ab1565b6131f1565b600254610569906001600160a01b031681565b6103306106b0366004613d9e565b6132cb565b6103306106c3366004613d9e565b600a6020525f908152604090205460ff1681565b6106ea6106e5366004613ab1565b613310565b60405161033c93929190614033565b61034e60125481565b610487610710366004613d9e565b6133bb565b61034e61072336600461405d565b613422565b61033061073636600461393c565b600460209081525f928352604080842090915290825290205460ff1681565b61038b610763366004613e21565b61352a565b61038b610776366004613e21565b61353d565b6107ac610789366004613d9e565b600b6020525f908152604090208054600182015460029092015490919060ff1683565b60408051938452602084019290925215159082015260600161033c565b61038b6107d7366004613d9e565b6135a1565b61038b6107ea366004613d9e565b6135db565b6016546103309060ff1681565b61034e61080a366004613f23565b61362e565b61082261081d36600461393c565b613647565b60405161033c91908151815260208083015190820152604080830151908201526060808301511515908201526080918201516001600160a01b03169181019190915260a00190565b5f8281526004602090815260408083206001600160a01b038516845290915290205460ff165b92915050565b6016545f9060ff161561090657335f908152600a602052604090205460ff166109065760405162461bcd60e51b815260206004820152601a60248201527f4e6f7420612063657274696669656420696e7374727563746f7200000000000060448201526064015b60405180910390fd5b5f86511161094e5760405162461bcd60e51b81526020600482015260156024820152745469746c652063616e6e6f7420626520656d70747960581b60448201526064016108fd565b5f831161099d5760405162461bcd60e51b815260206004820152601c60248201527f5072696365206d7573742062652067726561746572207468616e20300000000060448201526064016108fd565b8115806109c75750600e5482111580156109c757505f8281526009602052604090206002015460ff165b610a065760405162461bcd60e51b815260206004820152601060248201526f496e76616c69642063617465676f727960801b60448201526064016108fd565b600d8054905f610a15836140aa565b9091555050600d54604080516101808101825282815260208082018a81528284018a905260608301899052608083018890523360a0840152600160c084018190524260e08501525f61010085018190526101208501899052610140850181905261016085018190528681526003909352939091208251815590519192909190820190610aa19082614146565b5060408201516002820190610ab69082614146565b5060608201516003820190610acb9082614146565b506080820151600482015560a082015160058201805460c08501511515600160a01b026001600160a81b03199091166001600160a01b039093169290921791909117905560e082015160068083019190915561010083015160078301556101208301516008830155610140830151600983015561016090920151600a90910155335f81815260209283526040808220805460018101825590835293909120909201839055905182907fb83d6469b5bcd4072dcba58b925bc8e04b6ff79181fc081e76df301b1dc3d80190610ba4908b9089908990614200565b60405180910390a39695505050505050565b610bbe6136e6565b601055565b610bcb6138c3565b60035f8381526020019081526020015f20604051806101800160405290815f8201548152602001600182018054610c01906140c2565b80601f0160208091040260200160405190810160405280929190818152602001828054610c2d906140c2565b8015610c785780601f10610c4f57610100808354040283529160200191610c78565b820191905f5260205f20905b815481529060010190602001808311610c5b57829003601f168201915b50505050508152602001600282018054610c91906140c2565b80601f0160208091040260200160405190810160405280929190818152602001828054610cbd906140c2565b8015610d085780601f10610cdf57610100808354040283529160200191610d08565b820191905f5260205f20905b815481529060010190602001808311610ceb57829003601f168201915b50505050508152602001600382018054610d21906140c2565b80601f0160208091040260200160405190810160405280929190818152602001828054610d4d906140c2565b8015610d985780601f10610d6f57610100808354040283529160200191610d98565b820191905f5260205f20905b815481529060010190602001808311610d7b57829003601f168201915b50505091835250506004820154602082015260058201546001600160a01b0381166040830152600160a01b900460ff161515606082015260068201546080820152600782015460a0820152600882015460c0820152600982015460e0820152600a909101546101009091015292915050565b610e126136e6565b6014811115610e5b5760405162461bcd60e51b81526020600482015260156024820152744665652063616e6e6f74206578636565642032302560581b60448201526064016108fd565b600f55565b610e68613712565b6002546001600160a01b03166323b872dd33610e8b5f546001600160a01b031690565b6012546040518463ffffffff1660e01b8152600401610eac93929190614224565b6020604051808303815f875af1158015610ec8573d5f5f3e3d5ffd5b505050506040513d601f19601f82011682018060405250810190610eec9190614248565b610f295760405162461bcd60e51b815260206004820152600e60248201526d14185e5b595b9d0819985a5b195960921b60448201526064016108fd565b5f610f374262278d00614263565b335f908152600b602052604090206002015490915060ff168015610f6b5750335f908152600b602052604090206001015442105b15610f9257335f908152600b6020526040902060010154610f8f9062278d00614263565b90505b6040805160608101825242815260208082018481526001838501818152335f818152600b865287902095518655925191850191909155516002909301805460ff191693151593909317909255825162278d00815290810184905290917f6d458fa94cc5b30d7877bed127c2029f98bc0cbc4634dc7789b6bc804fbdae0391015b60405180910390a25061102460018055565b565b5f5f825f8111801561103a5750600d548111155b6110565760405162461bcd60e51b81526004016108fd90614276565b5f848152600360205260408120600a81015490910361107b575f5f93509350506110a5565b600a81015460098201546110909060646142a5565b61109a91906142bc565b81600a015493509350505b50915091565b855f811180156110bd5750600d548111155b6110d95760405162461bcd60e51b81526004016108fd90614276565b5f87815260036020526040902060058101546001600160a01b031633146111425760405162461bcd60e51b815260206004820152601a60248201527f4f6e6c7920696e7374727563746f722063616e2075706461746500000000000060448201526064016108fd565b6005810154600160a01b900460ff1661116d5760405162461bcd60e51b81526004016108fd906142db565b6001810161117b8882614146565b506002810161118a8782614146565b50600381016111998682614146565b50600481018490556008810183905560405188907f269ca4ac76f1fe8445143e604fc48426f3643e2467e177179f519c948c9e1c9a906111dc908a908890614309565b60405180910390a25050505050505050565b61121360405180606001604052805f60ff168152602001606081526020015f81525090565b5f8381526008602090815260408083206001600160a01b0386168452825291829020825160608101909352805460ff1683526001810180549192840191611259906140c2565b80601f0160208091040260200160405190810160405280929190818152602001828054611285906140c2565b80156112d05780601f106112a7576101008083540402835291602001916112d0565b820191905f5260205f20905b8154815290600101906020018083116112b357829003601f168201915b50505050508152602001600282015481525050905092915050565b6112f36136e6565b60148111156113445760405162461bcd60e51b815260206004820152601860248201527f5265776172642063616e6e6f742065786365656420323025000000000000000060448201526064016108fd565b601155565b600860209081525f92835260408084209091529082529020805460018201805460ff9092169291611379906140c2565b80601f01602080910402602001604051908101604052809291908181526020018280546113a5906140c2565b80156113f05780601f106113c7576101008083540402835291602001916113f0565b820191905f5260205f20905b8154815290600101906020018083116113d357829003601f168201915b5050505050908060020154905083565b611408613712565b601454825110156114675760405162461bcd60e51b8152602060048201526024808201527f4e6f7420656e6f75676820636f757273657320666f722062756c6b20646973636044820152631bdd5b9d60e21b60648201526084016108fd565b5f805b83518110156115cb575f8482815181106114865761148661432a565b602002602001015190505f811180156114a15750600d548111155b6114bd5760405162461bcd60e51b81526004016108fd90614276565b5f8181526003602052604090206005810154600160a01b900460ff166114f55760405162461bcd60e51b81526004016108fd906142db565b5f82815260046020908152604080832033845290915290205460ff16156115525760405162461bcd60e51b8152602060048201526011602482015270105b1c9958591e481c1d5c98da185cd959607a1b60448201526064016108fd565b6005810154336001600160a01b03909116036115b05760405162461bcd60e51b815260206004820181905260248201527f496e7374727563746f722063616e6e6f7420627579206f776e20636f7572736560448201526064016108fd565b60048101546115bf9085614263565b9350505060010161146a565b505f6064601554836115dd91906142a5565b6115e791906142bc565b90505f6115f4828461433e565b90505f6064600f548361160791906142a5565b61161191906142bc565b90505f6001600160a01b038616156116405760646011548461163391906142a5565b61163d91906142bc565b90505b6002546001600160a01b03166323b872dd336116635f546001600160a01b031690565b856040518463ffffffff1660e01b815260040161168293929190614224565b6020604051808303815f875af115801561169e573d5f5f3e3d5ffd5b505050506040513d601f19601f820116820180604052508101906116c29190614248565b61170e5760405162461bcd60e51b815260206004820152601c60248201527f506c6174666f726d20666565207472616e73666572206661696c65640000000060448201526064016108fd565b8015611841576002546040516323b872dd60e01b81526001600160a01b03909116906323b872dd906117489033908a908690600401614224565b6020604051808303815f875af1158015611764573d5f5f3e3d5ffd5b505050506040513d601f19601f820116820180604052508101906117889190614248565b6117d45760405162461bcd60e51b815260206004820152601f60248201527f526566657272616c20726577617264207472616e73666572206661696c65640060448201526064016108fd565b6001600160a01b0386165f908152600c6020526040812080548392906117fb908490614263565b909155505060405181815233906001600160a01b038816907f94ccb86446750660ec532b1beb1fb55f5ba2fffca042c4c53f4c080e72595b389060200160405180910390a35b5f8161184d848661433e565b611857919061433e565b90505f5b88518110156119bc575f8982815181106118775761187761432a565b602002602001015190505f60035f8381526020019081526020015f2090505f898583600401546118a791906142a5565b6118b191906142bc565b60025460058401546040516323b872dd60e01b81529293506001600160a01b03918216926323b872dd926118ee9233929116908690600401614224565b6020604051808303815f875af115801561190a573d5f5f3e3d5ffd5b505050506040513d601f19601f8201168201806040525081019061192e9190614248565b61197a5760405162461bcd60e51b815260206004820152601c60248201527f5061796d656e7420746f20696e7374727563746f72206661696c65640000000060448201526064016108fd565b6119b1836064601554856004015461199291906142a5565b61199c91906142bc565b84600401546119ab919061433e565b8d61373c565b50505060010161185b565b505050505050506119cc60018055565b5050565b6001600160a01b0381165f90815260066020908152604091829020805483518184028101840190945280845260609392830182828015611a2d57602002820191905f5260205f20905b815481526020019060010190808311611a19575b50505050509050919050565b611a416136e6565b6016805460ff1916911515919091179055565b60605f60015b600d548111611aa3575f81815260036020526040902060050154600160a01b900460ff1615611a915781611a8d816140aa565b9250505b80611a9b816140aa565b915050611a5a565b5082818510611ae657604080515f8082526020820190925290611adc565b611ac96138c3565b815260200190600190039081611ac15790505b5092505050610890565b81611af18587614263565b1115611b0457611b01858361433e565b90505b5f816001600160401b03811115611b1d57611b1d613966565b604051908082528060200260200182016040528015611b5657816020015b611b436138c3565b815260200190600190039081611b3b5790505b5090505f8060015b600d548111158015611b6f57508483105b15611e26575f81815260036020526040902060050154600160a01b900460ff1615611e1457888210611e065760035f8281526020019081526020015f20604051806101800160405290815f8201548152602001600182018054611bd1906140c2565b80601f0160208091040260200160405190810160405280929190818152602001828054611bfd906140c2565b8015611c485780601f10611c1f57610100808354040283529160200191611c48565b820191905f5260205f20905b815481529060010190602001808311611c2b57829003601f168201915b50505050508152602001600282018054611c61906140c2565b80601f0160208091040260200160405190810160405280929190818152602001828054611c8d906140c2565b8015611cd85780601f10611caf57610100808354040283529160200191611cd8565b820191905f5260205f20905b815481529060010190602001808311611cbb57829003601f168201915b50505050508152602001600382018054611cf1906140c2565b80601f0160208091040260200160405190810160405280929190818152602001828054611d1d906140c2565b8015611d685780601f10611d3f57610100808354040283529160200191611d68565b820191905f5260205f20905b815481529060010190602001808311611d4b57829003601f168201915b50505091835250506004820154602082015260058201546001600160a01b0381166040830152600160a01b900460ff161515606082015260068201546080820152600782015460a0820152600882015460c0820152600982015460e0820152600a90910154610100909101528451859085908110611de857611de861432a565b60200260200101819052508280611dfe906140aa565b935050611e14565b81611e10816140aa565b9250505b80611e1e816140aa565b915050611b5e565b5091979650505050505050565b60605f60015b600d548111611e9d575f81815260036020526040902060050154600160a01b900460ff168015611e7857505f8181526003602052604090206008015486145b15611e8b5781611e87816140aa565b9250505b80611e95816140aa565b915050611e39565b50808410611ede57604080515f8082526020820190925290611ed5565b611ec26138c3565b815260200190600190039081611eba5790505b50915050612243565b8281611eea8287614263565b1115611efd57611efa858361433e565b90505b5f816001600160401b03811115611f1657611f16613966565b604051908082528060200260200182016040528015611f4f57816020015b611f3c6138c3565b815260200190600190039081611f345790505b5090505f8060015b600d548111158015611f6857508483105b1561223a575f81815260036020526040902060050154600160a01b900460ff168015611fa357505f818152600360205260409020600801548a145b156122285788821061221a5760035f8281526020019081526020015f20604051806101800160405290815f8201548152602001600182018054611fe5906140c2565b80601f0160208091040260200160405190810160405280929190818152602001828054612011906140c2565b801561205c5780601f106120335761010080835404028352916020019161205c565b820191905f5260205f20905b81548152906001019060200180831161203f57829003601f168201915b50505050508152602001600282018054612075906140c2565b80601f01602080910402602001604051908101604052809291908181526020018280546120a1906140c2565b80156120ec5780601f106120c3576101008083540402835291602001916120ec565b820191905f5260205f20905b8154815290600101906020018083116120cf57829003601f168201915b50505050508152602001600382018054612105906140c2565b80601f0160208091040260200160405190810160405280929190818152602001828054612131906140c2565b801561217c5780601f106121535761010080835404028352916020019161217c565b820191905f5260205f20905b81548152906001019060200180831161215f57829003601f168201915b50505091835250506004820154602082015260058201546001600160a01b0381166040830152600160a01b900460ff161515606082015260068201546080820152600782015460a0820152600882015460c0820152600982015460e0820152600a909101546101009091015284518590859081106121fc576121fc61432a565b60200260200101819052508280612212906140aa565b935050612228565b81612224816140aa565b9250505b80612232816140aa565b915050611f57565b50919450505050505b9392505050565b6122526136e6565b5f831180156122635750600e548311155b6122af5760405162461bcd60e51b815260206004820152601760248201527f43617465676f727920646f6573206e6f7420657869737400000000000000000060448201526064016108fd565b5f8381526009602052604090206001016122c98382614146565b505f8381526009602052604090819020600201805460ff19168315151790555183907f5bdd46fc25129a7ae160f84298da28664e8970f8874a02f19537b0313d8f8dc790612318908590614351565b60405180910390a2505050565b6006602052815f5260405f20818154811061233e575f80fd5b905f5260205f20015f91509150505481565b6123586136e6565b6110245f613874565b612369613712565b6002546001600160a01b03166323b872dd3361238c5f546001600160a01b031690565b6013546040518463ffffffff1660e01b81526004016123ad93929190614224565b6020604051808303815f875af11580156123c9573d5f5f3e3d5ffd5b505050506040513d601f19601f820116820180604052508101906123ed9190614248565b61242a5760405162461bcd60e51b815260206004820152600e60248201526d14185e5b595b9d0819985a5b195960921b60448201526064016108fd565b5f612439426301e13380614263565b335f908152600b602052604090206002015490915060ff16801561246d5750335f908152600b602052604090206001015442105b1561249557335f908152600b6020526040902060010154612492906301e13380614263565b90505b6040805160608101825242815260208082018481526001838501818152335f818152600b865287902095518655925191850191909155516002909301805460ff19169315159390931790925582516301e13380815290810184905290917f6d458fa94cc5b30d7877bed127c2029f98bc0cbc4634dc7789b6bc804fbdae039101611012565b6125226136e6565b6001600160a01b0381165f818152600a6020526040808220805460ff19169055517fe51fa6e2bcfe13a6bfa578c07f7c77da0ab7c80fd962abc02a0e8f57734032819190a250565b825f8111801561257c5750600d548111155b6125985760405162461bcd60e51b81526004016108fd90614276565b5f84815260046020908152604080832033845290915290205460ff166125f85760405162461bcd60e51b81526020600482015260156024820152744d75737420707572636861736520746f207261746560581b60448201526064016108fd565b60018360ff1610158015612610575060058360ff1611155b6126505760405162461bcd60e51b815260206004820152601160248201527053636f7265206d75737420626520312d3560781b60448201526064016108fd565b5f84815260086020908152604080832033845290915290205460ff16156126a95760405162461bcd60e51b815260206004820152600d60248201526c105b1c9958591e481c985d1959609a1b60448201526064016108fd565b5f848152600360209081526040808320815160608101835260ff888116825281850188815242838601528a875260088652848720338852909552929094208451815460ff191693169290921782559151919291600182019061270b9082614146565b50604082015181600201559050508360ff16816009015f82825461272f9190614263565b9091555050600a81018054905f612745836140aa565b9190505550336001600160a01b0316857fea9acfe543d2ab89d74034703f4f36852347ee40d5cffcf62743493f9b37d6cf8686604051612786929190614363565b60405180910390a35050505050565b60036020525f9081526040902080546001820180549192916127b6906140c2565b80601f01602080910402602001604051908101604052809291908181526020018280546127e2906140c2565b801561282d5780601f106128045761010080835404028352916020019161282d565b820191905f5260205f20905b81548152906001019060200180831161281057829003601f168201915b505050505090806002018054612842906140c2565b80601f016020809104026020016040519081016040528092919081815260200182805461286e906140c2565b80156128b95780601f10612890576101008083540402835291602001916128b9565b820191905f5260205f20905b81548152906001019060200180831161289c57829003601f168201915b5050505050908060030180546128ce906140c2565b80601f01602080910402602001604051908101604052809291908181526020018280546128fa906140c2565b80156129455780601f1061291c57610100808354040283529160200191612945565b820191905f5260205f20905b81548152906001019060200180831161292857829003601f168201915b50505050600483015460058401546006850154600786015460088701546009880154600a90980154969794966001600160a01b0385169650600160a01b90940460ff16949293919290918c565b61299a613712565b815f811180156129ac5750600d548111155b6129c85760405162461bcd60e51b81526004016108fd90614276565b5f8381526003602052604090206005810154600160a01b900460ff16612a005760405162461bcd60e51b81526004016108fd906142db565b5f84815260046020908152604080832033845290915290205460ff1615612a5d5760405162461bcd60e51b8152602060048201526011602482015270105b1c9958591e481c1d5c98da185cd959607a1b60448201526064016108fd565b6005810154336001600160a01b0390911603612abb5760405162461bcd60e51b815260206004820181905260248201527f496e7374727563746f722063616e6e6f7420627579206f776e20636f7572736560448201526064016108fd565b336001600160a01b03841603612b0b5760405162461bcd60e51b815260206004820152601560248201527421b0b73737ba103932b332b9103cb7bab939b2b63360591b60448201526064016108fd565b335f908152600b602052604090206002015460ff168015612b3c5750335f908152600b602052604090206001015442105b15612b5257612b4c845f5f61373c565b50612ec2565b6004810154600f545f90606490612b6990846142a5565b612b7391906142bc565b90505f6001600160a01b03861615801590612baf57505f8781526004602090815260408083206001600160a01b038a16845290915290205460ff165b15612bd157606460115484612bc491906142a5565b612bce91906142bc565b90505b5f81612bdd848661433e565b612be7919061433e565b60025460058701546040516323b872dd60e01b81529293506001600160a01b03918216926323b872dd92612c249233929116908690600401614224565b6020604051808303815f875af1158015612c40573d5f5f3e3d5ffd5b505050506040513d601f19601f82011682018060405250810190612c649190614248565b612cb05760405162461bcd60e51b815260206004820152601c60248201527f5061796d656e7420746f20696e7374727563746f72206661696c65640000000060448201526064016108fd565b6002546001600160a01b03166323b872dd33612cd35f546001600160a01b031690565b866040518463ffffffff1660e01b8152600401612cf293929190614224565b6020604051808303815f875af1158015612d0e573d5f5f3e3d5ffd5b505050506040513d601f19601f82011682018060405250810190612d329190614248565b612d7e5760405162461bcd60e51b815260206004820152601c60248201527f506c6174666f726d20666565207472616e73666572206661696c65640000000060448201526064016108fd565b8115612eb1576002546040516323b872dd60e01b81526001600160a01b03909116906323b872dd90612db89033908b908790600401614224565b6020604051808303815f875af1158015612dd4573d5f5f3e3d5ffd5b505050506040513d601f19601f82011682018060405250810190612df89190614248565b612e445760405162461bcd60e51b815260206004820152601f60248201527f526566657272616c20726577617264207472616e73666572206661696c65640060448201526064016108fd565b6001600160a01b0387165f908152600c602052604081208054849290612e6b908490614263565b909155505060405182815233906001600160a01b038916907f94ccb86446750660ec532b1beb1fb55f5ba2fffca042c4c53f4c080e72595b389060200160405180910390a35b612ebc88858961373c565b50505050505b506119cc60018055565b612ed4613712565b805f81118015612ee65750600d548111155b612f025760405162461bcd60e51b81526004016108fd90614276565b5f82815260046020908152604080832033845290915290205460ff16612f5a5760405162461bcd60e51b815260206004820152600d60248201526c139bdd081c1d5c98da185cd959609a1b60448201526064016108fd565b5f8281526007602090815260408083203384529091529020600381015460ff1615612fba5760405162461bcd60e51b815260206004820152601060248201526f105b1c9958591e481c99599d5b99195960821b60448201526064016108fd565b6010548160010154612fcc9190614263565b4211156130135760405162461bcd60e51b81526020600482015260156024820152741499599d5b99081c195c9a5bd908195e1c1a5c9959605a1b60448201526064016108fd565b5f8160020154116130775760405162461bcd60e51b815260206004820152602860248201527f537562736372697074696f6e2070757263686173652063616e6e6f74206265206044820152671c99599d5b99195960c21b60648201526084016108fd565b5f838152600360208181526040808420928501805460ff199081166001179091556004835281852033865290925283208054909116905560078101805491926130bf8361437e565b91905055505f6064600f5484600201546130d991906142a5565b6130e391906142bc565b83600201546130f2919061433e565b60025460058401546040516323b872dd60e01b81529293506001600160a01b03918216926323b872dd9261312e92169033908690600401614224565b6020604051808303815f875af115801561314a573d5f5f3e3d5ffd5b505050506040513d601f19601f8201168201806040525081019061316e9190614248565b6131aa5760405162461bcd60e51b815260206004820152600d60248201526c1499599d5b990819985a5b1959609a1b60448201526064016108fd565b604051818152339086907f7a482fdeb6bc9a1376f597068a214a7a39472bb2eff1b8cad21ba04f49ddca1b9060200160405180910390a3505050506131ee60018055565b50565b805f811180156132035750600d548111155b61321f5760405162461bcd60e51b81526004016108fd90614276565b5f82815260036020526040902060058101546001600160a01b031633148061325057505f546001600160a01b031633145b61328d5760405162461bcd60e51b815260206004820152600e60248201526d139bdd08185d5d1a1bdc9a5e995960921b60448201526064016108fd565b60058101805460ff60a01b1916905560405183907f85a406c134e004f27c0b2cd0d0d951d7235374623df2bc40752d06597463a83f905f90a2505050565b6001600160a01b0381165f908152600b602052604081206002015460ff1680156108905750506001600160a01b03165f908152600b6020526040902060010154421090565b60096020525f908152604090208054600182018054919291613331906140c2565b80601f016020809104026020016040519081016040528092919081815260200182805461335d906140c2565b80156133a85780601f1061337f576101008083540402835291602001916133a8565b820191905f5260205f20905b81548152906001019060200180831161338b57829003601f168201915b5050506002909301549192505060ff1683565b6001600160a01b0381165f90815260056020908152604091829020805483518184028101840190945280845260609392830182828015611a2d57602002820191905f5260205f2090815481526020019060010190808311611a195750505050509050919050565b5f61342b6136e6565b5f8251116134725760405162461bcd60e51b81526020600482015260146024820152734e616d652063616e6e6f7420626520656d70747960601b60448201526064016108fd565b600e8054905f613481836140aa565b909155505060408051606081018252600e54808252602080830186815260018486018190525f938452600990925293909120825181559251919291908201906134ca9082614146565b50604091820151600291909101805460ff1916911515919091179055600e5490517f11c167cc9b439f0ad8bec5588159f1b06b813bc38d50c867a41b23b077be2c1a90613518908590614351565b60405180910390a250600e545b919050565b6135326136e6565b601291909155601355565b6135456136e6565b60328111156135965760405162461bcd60e51b815260206004820152601a60248201527f446973636f756e742063616e6e6f74206578636565642035302500000000000060448201526064016108fd565b601491909155601555565b6135a96136e6565b6001600160a01b0381166135d257604051631e4fbdf760e01b81525f60048201526024016108fd565b6131ee81613874565b6135e36136e6565b6001600160a01b0381165f818152600a6020526040808220805460ff19166001179055517f5269b5f8f4214317e3a164d5e9018a6970e2d5d2f348b9d1460b793dda35b1bd9190a250565b6005602052815f5260405f20818154811061233e575f80fd5b61367f6040518060a001604052805f81526020015f81526020015f81526020015f151581526020015f6001600160a01b031681525090565b505f9182526007602090815260408084206001600160a01b039384168552825292839020835160a0810185528154815260018201549281019290925260028101549382019390935260039092015460ff811615156060840152610100900416608082015290565b5f546001600160a01b031633146110245760405163118cdaa760e01b81523360048201526024016108fd565b60026001540361373557604051633ee5aeb560e01b815260040160405180910390fd5b6002600155565b5f838152600360209081526040808320600483528184203385528352818420805460ff1916600190811790915560058452918420805492830181558452918320018590556007810180549192613791836140aa565b90915550506040805160a0810182528581524260208083018281528385018881525f60608087018281526001600160a01b038b811660808a018181528f8652600789528b862033808852908a52958c90209a518b55965160018b0155945160028a0155905160039098018054955190911661010002610100600160a81b0319981515989098166001600160a81b031990951694909417969096179092558551898152928301939093529381019190915286917fb569ad29e5270d08fe37527fda62fa0d55b0507b02370c5e60e9d85d824cf61c910160405180910390a350505050565b5f80546001600160a01b038381166001600160a01b0319831681178455604051919092169283917f8be0079c531659141344cd1fd0a4f28419497f9722a3daafe3b4186f6b6457e09190a35050565b6040518061018001604052805f81526020016060815260200160608152602001606081526020015f81526020015f6001600160a01b031681526020015f151581526020015f81526020015f81526020015f81526020015f81526020015f81525090565b80356001600160a01b0381168114613525575f5ffd5b5f5f6040838503121561394d575f5ffd5b8235915061395d60208401613926565b90509250929050565b634e487b7160e01b5f52604160045260245ffd5b604051601f8201601f191681016001600160401b03811182821017156139a2576139a2613966565b604052919050565b5f82601f8301126139b9575f5ffd5b81356001600160401b038111156139d2576139d2613966565b6139e5601f8201601f191660200161397a565b8181528460208386010111156139f9575f5ffd5b816020850160208301375f918101602001919091529392505050565b5f5f5f5f5f60a08688031215613a29575f5ffd5b85356001600160401b03811115613a3e575f5ffd5b613a4a888289016139aa565b95505060208601356001600160401b03811115613a65575f5ffd5b613a71888289016139aa565b94505060408601356001600160401b03811115613a8c575f5ffd5b613a98888289016139aa565b9598949750949560608101359550608001359392505050565b5f60208284031215613ac1575f5ffd5b5035919050565b5f81518084528060208401602086015e5f602082860101526020601f19601f83011685010191505092915050565b805182525f60208201516101806020850152613b16610180850182613ac8565b905060408301518482036040860152613b2f8282613ac8565b91505060608301518482036060860152613b498282613ac8565b9150506080830151608085015260a0830151613b7060a08601826001600160a01b03169052565b5060c0830151613b8460c086018215159052565b5060e083015160e08501526101008301516101008501526101208301516101208501526101408301516101408501526101608301516101608501528091505092915050565b602081525f6122436020830184613af6565b5f5f5f5f5f5f60c08789031215613bf0575f5ffd5b8635955060208701356001600160401b03811115613c0c575f5ffd5b613c1889828a016139aa565b95505060408701356001600160401b03811115613c33575f5ffd5b613c3f89828a016139aa565b94505060608701356001600160401b03811115613c5a575f5ffd5b613c6689828a016139aa565b9699959850939660808101359560a090910135945092505050565b6020815260ff82511660208201525f602083015160606040840152613ca96080840182613ac8565b9050604084015160608401528091505092915050565b60ff84168152606060208201525f613cda6060830185613ac8565b9050826040830152949350505050565b5f5f60408385031215613cfb575f5ffd5b82356001600160401b03811115613d10575f5ffd5b8301601f81018513613d20575f5ffd5b80356001600160401b03811115613d3957613d39613966565b8060051b613d496020820161397a565b91825260208184018101929081019088841115613d64575f5ffd5b6020850194505b83851015613d8a57843580835260209586019590935090910190613d6b565b809650505050505061395d60208401613926565b5f60208284031215613dae575f5ffd5b61224382613926565b602080825282518282018190525f918401906040840190835b81811015613dee578351835260209384019390920191600101613dd0565b509095945050505050565b80151581146131ee575f5ffd5b5f60208284031215613e16575f5ffd5b813561224381613df9565b5f5f60408385031215613e32575f5ffd5b50508035926020909101359150565b5f602082016020835280845180835260408501915060408160051b8601019250602086015f5b82811015613e9857603f19878603018452613e83858351613af6565b94506020938401939190910190600101613e67565b50929695505050505050565b5f5f5f60608486031215613eb6575f5ffd5b505081359360208301359350604090920135919050565b5f5f5f60608486031215613edf575f5ffd5b8335925060208401356001600160401b03811115613efb575f5ffd5b613f07868287016139aa565b9250506040840135613f1881613df9565b809150509250925092565b5f5f60408385031215613f34575f5ffd5b613f3d83613926565b946020939093013593505050565b5f5f5f60608486031215613f5d575f5ffd5b83359250602084013560ff81168114613f74575f5ffd5b915060408401356001600160401b03811115613f8e575f5ffd5b613f9a868287016139aa565b9150509250925092565b8c815261018060208201525f613fbe61018083018e613ac8565b8281036040840152613fd0818e613ac8565b90508281036060840152613fe4818d613ac8565b608084019b909b5250506001600160a01b039790971660a088015294151560c087015260e086019390935261010085019190915261012084015261014083015261016090910152949350505050565b838152606060208201525f61404b6060830185613ac8565b90508215156040830152949350505050565b5f6020828403121561406d575f5ffd5b81356001600160401b03811115614082575f5ffd5b61408e848285016139aa565b949350505050565b634e487b7160e01b5f52601160045260245ffd5b5f600182016140bb576140bb614096565b5060010190565b600181811c908216806140d657607f821691505b6020821081036140f457634e487b7160e01b5f52602260045260245ffd5b50919050565b601f82111561414157805f5260205f20601f840160051c8101602085101561411f5750805b601f840160051c820191505b8181101561413e575f815560010161412b565b50505b505050565b81516001600160401b0381111561415f5761415f613966565b6141738161416d84546140c2565b846140fa565b6020601f8211600181146141a5575f831561418e5750848201515b5f19600385901b1c1916600184901b17845561413e565b5f84815260208120601f198516915b828110156141d457878501518255602094850194600190920191016141b4565b50848210156141f157868401515f19600387901b60f8161c191681555b50505050600190811b01905550565b606081525f6142126060830186613ac8565b60208301949094525060400152919050565b6001600160a01b039384168152919092166020820152604081019190915260600190565b5f60208284031215614258575f5ffd5b815161224381613df9565b8082018082111561089057610890614096565b60208082526015908201527410dbdd5c9cd948191bd95cc81b9bdd08195e1a5cdd605a1b604082015260600190565b808202811582820484141761089057610890614096565b5f826142d657634e487b7160e01b5f52601260045260245ffd5b500490565b602080825260149082015273436f75727365206973206e6f742061637469766560601b604082015260600190565b604081525f61431b6040830185613ac8565b90508260208301529392505050565b634e487b7160e01b5f52603260045260245ffd5b8181038181111561089057610890614096565b602081525f6122436020830184613ac8565b60ff83168152604060208201525f61408e6040830184613ac8565b5f8161438c5761438c614096565b505f19019056fea26469706673582212203bf315536f9f1aab9297b3563f024346fe2b8a29ad286f56f8eb948d00e36c7364736f6c634300081c0033",
  "linkReferences": {},
  "deployedLinkReferences": {},
  "immutableReferences": {},
  "inputSourceName": "project/contracts/Course.sol",
  "buildInfoId": "solc-0_8_28-82f2b0b9881f98effa5d09ce052d2ad061118dcb"
}