{
  "_format": "hh3-artifact-1",
  "contractName": "YDToken",
  "sourceName": "contracts/YDToken.sol",
  "abi": [
    {
      "inputs": [],
      "stateMutability": "nonpayable",
      "type": "constructor"
    },
    {
      "inputs": [
        {
          "internalType": "address",
          "name": "spender",
          "type": "address"
        },
        {
          "internalType": "uint256",
          "name": "allowance",
          "type": "uint256"
        },
        {
          "internalType": "uint256",
          "name": "needed",
          "type": "uint256"
        }
      ],
      "name": "ERC20InsufficientAllowance",
      "type": "error"
    },
    {
      "inputs": [
        {
          "internalType": "address",
          "name": "sender",
          "type": "address"
        },
        {
          "internalType": "uint256",
          "name": "balance",
          "type": "uint256"
        },
        {
          "internalType": "uint256",
          "name": "needed",
          "type": "uint256"
        }
      ],
      "name": "ERC20InsufficientBalance",
      "type": "error"
    },
    {
      "inputs": [
        {
          "internalType": "address",
          "name": "approver",
          "type": "address"
        }
      ],
      "name": "ERC20InvalidApprover",
      "type": "error"
    },
    {
      "inputs": [
        {
          "internalType": "address",
          "name": "receiver",
          "type": "address"
        }
      ],
      "name": "ERC20InvalidReceiver",
      "type": "error"
    },
    {
      "inputs": [
        {
          "internalType": "address",
          "name": "sender",
          "type": "address"
        }
      ],
      "name": "ERC20InvalidSender",
      "type": "error"
    },
    {
      "inputs": [
        {
          "internalType": "address",
          "name": "spender",
          "type": "address"
        }
      ],
      "name": "ERC20InvalidSpender",
      "type": "error"
    },
    {
      "inputs": [],
      "name": "EnforcedPause",
      "type": "error"
    },
    {
      "inputs": [],
      "name": "ExpectedPause",
      "type": "error"
    },
    {
      "inputs": [
        {
          "internalType": "address",
          "name": "owner",
          "type": "address"
        }
      ],
      "name": "OwnableInvalidOwner",
      "type": "error"
    },
    {
      "inputs": [
        {
          "internalType": "address",
          "name": "account",
          "type": "address"
        }
      ],
      "name": "OwnableUnauthorizedAccount",
      "type": "error"
    },
    {
      "anonymous": false,
      "inputs": [
        {
          "indexed": true,
          "internalType": "address",
          "name": "owner",
          "type": "address"
        },
        {
          "indexed": true,
          "internalType": "address",
          "name": "spender",
          "type": "address"
        },
        {
          "indexed": false,
          "internalType": "uint256",
          "name": "value",
          "type": "uint256"
        }
      ],
      "name": "Approval",
      "type": "event"
    },
    {
      "anonymous": false,
      "inputs": [
        {
          "indexed": true,
          "internalType": "address",
          "name": "previousOwner",
          "type": "address"
        },
        {
          "indexed": true,
          "internalType": "address",
          "name": "newOwner",
          "type": "address"
        }
      ],
      "name": "OwnershipTransferred",
      "type": "event"
    },
    {
      "anonymous": false,
      "inputs": [
        {
          "indexed": false,
          "internalType": "address",
          "name": "account",
          "type": "address"
        }
      ],
      "name": "Paused",
      "type": "event"
    },
    {
      "anonymous": false,
      "inputs": [
        {
          "indexed": false,
          "internalType": "uint256",
          "name": "minLimit",
          "type": "uint256"
        },
        {
          "indexed": false,
          "internalType": "uint256",
          "name": "maxLimit",
          "type": "uint256"
        }
      ],
      "name": "PurchaseLimitUpdated",
      "type": "event"
    },
    {
      "anonymous": false,
      "inputs": [
        {
          "indexed": true,
          "internalType": "address",
          "name": "from",
          "type": "address"
        },
        {
          "indexed": true,
          "internalType": "address",
          "name": "to",
          "type": "address"
        },
        {
          "indexed": false,
          "internalType": "uint256",
          "name": "value",
          "type": "uint256"
        }
      ],
      "name": "Transfer",
      "type": "event"
    },
    {
      "anonymous": false,
      "inputs": [
        {
          "indexed": false,
          "internalType": "address",
          "name": "account",
          "type": "address"
        }
      ],
      "name": "Unpaused",
      "type": "event"
    },
    {
      "anonymous": false,
      "inputs": [
        {
          "indexed": true,
          "internalType": "address",
          "name": "buyer",
          "type": "address"
        },
        {
          "indexed": false,
          "internalType": "uint256",
          "name": "ethAmount",
          "type": "uint256"
        },
        {
          "indexed": false,
          "internalType": "uint256",
          "name": "tokenAmount",
          "type": "uint256"
        }
      ],
      "name": "YDTokenPurchased",
      "type": "event"
    },
    {
      "anonymous": false,
      "inputs": [
        {
          "indexed": true,
          "internalType": "address",
          "name": "seller",
          "type": "address"
        },
        {
          "indexed": false,
          "internalType": "uint256",
          "name": "ethAmount",
          "type": "uint256"
        },
        {
          "indexed": false,
          "internalType": "uint256",
          "name": "tokenAmount",
          "type": "uint256"
        }
      ],
      "name": "YDTokenSold",
      "type": "event"
    },
    {
      "inputs": [],
      "name": "EXCHANGE_RATE",
      "outputs": [
        {
          "internalType": "uint256",
          "name": "",
          "type": "uint256"
        }
      ],
      "stateMutability": "view",
      "type": "function"
    },
    {
      "inputs": [],
      "name": "INITIAL_SUPPLY",
      "outputs": [
        {
          "internalType": "uint256",
          "name": "",
          "type": "uint256"
        }
      ],
      "stateMutability": "view",
      "type": "function"
    },
    {
      "inputs": [
        {
          "internalType": "address",
          "name": "owner",
          "type": "address"
        },
        {
          "internalType": "address",
          "name": "spender",
          "type": "address"
        }
      ],
      "name": "allowance",
      "outputs": [
        {
          "internalType": "uint256",
          "name": "",
          "type": "uint256"
        }
      ],
      "stateMutability": "view",
      "type": "function"
    },
    {
      "inputs": [
        {
          "internalType": "address",
          "name": "spender",
          "type": "address"
        },
        {
          "internalType": "uint256",
          "name": "value",
          "type": "uint256"
        }
      ],
      "name": "approve",
      "outputs": [
        {
          "internalType": "bool",
          "name": "",
          "type": "bool"
        }
      ],
      "stateMutability": "nonpayable",
      "type": "function"
    },
    {
      "inputs": [
        {
          "internalType": "address",
          "name": "account",
          "type": "address"
        }
      ],
      "name": "balanceOf",
      "outputs": [
        {
          "internalType": "uint256",
          "name": "",
          "type": "uint256"
        }
      ],
      "stateMutability": "view",
      "type": "function"
    },
    {
      "inputs": [
        {
          "internalType": "uint256",
          "name": "value",
          "type": "uint256"
        }
      ],
      "name": "burn",
      "outputs": [],
      "stateMutability": "nonpayable",
      "type": "function"
    },
    {
      "inputs": [
        {
          "internalType": "address",
          "name": "account",
          "type": "address"
        },
        {
          "internalType": "uint256",
          "name": "value",
          "type": "uint256"
        }
      ],
      "name": "burnFrom",
      "outputs": [],
      "stateMutability": "nonpayable",
      "type": "function"
    },
    {
      "inputs": [],
      "name": "buyYDToken",
      "outputs": [],
      "stateMutability": "payable",
      "type": "function"
    },
    {
      "inputs": [],
      "name": "decimals",
      "outputs": [
        {
          "internalType": "uint8",
          "name": "",
          "type": "uint8"
        }
      ],
      "stateMutability": "view",
      "type": "function"
    },
    {
      "inputs": [
        {
          "internalType": "uint256",
          "name": "tokenAmount",
          "type": "uint256"
        }
      ],
      "name": "getETHAmount",
      "outputs": [
        {
          "internalType": "uint256",
          "name": "",
          "type": "uint256"
        }
      ],
      "stateMutability": "pure",
      "type": "function"
    },
    {
      "inputs": [
        {
          "internalType": "uint256",
          "name": "ethAmount",
          "type": "uint256"
        }
      ],
      "name": "getTokenAmount",
      "outputs": [
        {
          "internalType": "uint256",
          "name": "",
          "type": "uint256"
        }
      ],
      "stateMutability": "pure",
      "type": "function"
    },
    {
      "inputs": [],
      "name": "maxPurchaseLimit",
      "outputs": [
        {
          "internalType": "uint256",
          "name": "",
          "type": "uint256"
        }
      ],
      "stateMutability": "view",
      "type": "function"
    },
    {
      "inputs": [],
      "name": "minPurchaseLimit",
      "outputs": [
        {
          "internalType": "uint256",
          "name": "",
          "type": "uint256"
        }
      ],
      "stateMutability": "view",
      "type": "function"
    },
    {
      "inputs": [],
      "name": "name",
      "outputs": [
        {
          "internalType": "string",
          "name": "",
          "type": "string"
        }
      ],
      "stateMutability": "view",
      "type": "function"
    },
    {
      "inputs": [],
      "name": "owner",
      "outputs": [
        {
          "internalType": "address",
          "name": "",
          "type": "address"
        }
      ],
      "stateMutability": "view",
      "type": "function"
    },
    {
      "inputs": [],
      "name": "pause",
      "outputs": [],
      "stateMutability": "nonpayable",
      "type": "function"
    },
    {
      "inputs": [],
      "name": "paused",
      "outputs": [
        {
          "internalType": "bool",
          "name": "",
          "type": "bool"
        }
      ],
      "stateMutability": "view",
      "type": "function"
    },
    {
      "inputs": [],
      "name": "renounceOwnership",
      "outputs": [],
      "stateMutability": "nonpayable",
      "type": "function"
    },
    {
      "inputs": [
        {
          "internalType": "uint256",
          "name": "tokenAmount",
          "type": "uint256"
        }
      ],
      "name": "sellYDToken",
      "outputs": [],
      "stateMutability": "nonpayable",
      "type": "function"
    },
    {
      "inputs": [
        {
          "internalType": "uint256",
          "name": "_minLimit",
          "type": "uint256"
        },
        {
          "internalType": "uint256",
          "name": "_maxLimit",
          "type": "uint256"
        }
      ],
      "name": "setPurchaseLimits",
      "outputs": [],
      "stateMutability": "nonpayable",
      "type": "function"
    },
    {
      "inputs": [],
      "name": "symbol",
      "outputs": [
        {
          "internalType": "string",
          "name": "",
          "type": "string"
        }
      ],
      "stateMutability": "view",
      "type": "function"
    },
    {
      "inputs": [],
      "name": "totalSupply",
      "outputs": [
        {
          "internalType": "uint256",
          "name": "",
          "type": "uint256"
        }
      ],
      "stateMutability": "view",
      "type": "function"
    },
    {
      "inputs": [
        {
          "internalType": "address",
          "name": "to",
          "type": "address"
        },
        {
          "internalType": "uint256",
          "name": "value",
          "type": "uint256"
        }
      ],
      "name": "transfer",
      "outputs": [
        {
          "internalType": "bool",
          "name": "",
          "type": "bool"
        }
      ],
      "stateMutability": "nonpayable",
      "type": "function"
    },
    {
      "inputs": [
        {
          "internalType": "address",
          "name": "from",
          "type": "address"
        },
        {
          "internalType": "address",
          "name": "to",
          "type": "address"
        },
        {
          "internalType": "uint256",
          "name": "value",
          "type": "uint256"
        }
      ],
      "name": "transferFrom",
      "outputs": [
        {
          "internalType": "bool",
          "name": "",
          "type": "bool"
        }
      ],
      "stateMutability": "nonpayable",
      "type": "function"
    },
    {
      "inputs": [
        {
          "internalType": "address",
          "name": "newOwner",
          "type": "address"
        }
      ],
      "name": "transferOwnership",
      "outputs": [],
      "stateMutability": "nonpayable",
      "type": "function"
    },
    {
      "inputs": [],
      "name": "unpause",
      "outputs": [],
      "stateMutability": "nonpayable",
      "type": "function"
    },
    {
      "inputs": [],
      "name": "withdrawETH",
      "outputs": [],
      "stateMutability": "nonpayable",
      "type": "function"
    },
    {
      "stateMutability": "payable",
      "type": "receive"
    }
  ],
  "bytecode": "0x608060405268056bc75e2d6310000060065566038d7ea4c68000600755348015610027575f5ffd5b5033604051806040016040528060078152602001662ca22a37b5b2b760c91b81525060405180604001604052806002815260200161165160f21b8152508160039081610073919061031b565b506004610080828261031b565b5050506001600160a01b0381166100b157604051631e4fbdf760e01b81525f60048201526024015b60405180910390fd5b6100ba816100d4565b506100cf3369d3c21bcecceda1000000610125565b6103fa565b600580546001600160a01b038381166001600160a01b0319831681179093556040519116919082907f8be0079c531659141344cd1fd0a4f28419497f9722a3daafe3b4186f6b6457e0905f90a35050565b6001600160a01b03821661014e5760405163ec442f0560e01b81525f60048201526024016100a8565b6101595f838361015d565b5050565b6001600160a01b038316610187578060025f82825461017c91906103d5565b909155506101f79050565b6001600160a01b0383165f90815260208190526040902054818110156101d95760405163391434e360e21b81526001600160a01b038516600482015260248101829052604481018390526064016100a8565b6001600160a01b0384165f9081526020819052604090209082900390555b6001600160a01b03821661021357600280548290039055610231565b6001600160a01b0382165f9081526020819052604090208054820190555b816001600160a01b0316836001600160a01b03167fddf252ad1be2c89b69c2b068fc378daa952ba7f163c4a11628f55a4df523b3ef8360405161027691815260200190565b60405180910390a3505050565b634e487b7160e01b5f52604160045260245ffd5b600181811c908216806102ab57607f821691505b6020821081036102c957634e487b7160e01b5f52602260045260245ffd5b50919050565b601f82111561031657805f5260205f20601f840160051c810160208510156102f45750805b601f840160051c820191505b81811015610313575f8155600101610300565b50505b505050565b81516001600160401b0381111561033457610334610283565b610348816103428454610297565b846102cf565b6020601f82116001811461037a575f83156103635750848201515b5f19600385901b1c1916600184901b178455610313565b5f84815260208120601f198516915b828110156103a95787850151825560209485019460019092019101610389565b50848210156103c657868401515f19600387901b60f8161c191681555b50505050600190811b01905550565b808201808211156103f457634e487b7160e01b5f52601160045260245ffd5b92915050565b6111f8806104075f395ff3fe608060405260043610610198575f3560e01c8063715018a6116100e7578063c06c829911610087578063e086e5ec11610062578063e086e5ec14610466578063ef46b2ab1461047a578063f2fde38b14610499578063fc75708f146104b8575f5ffd5b8063c06c8299146103fb578063c2507ac114610403578063dd62ed3e14610422575f5ffd5b80638da5cb5b116100c25780638da5cb5b1461038257806395d89b41146103a9578063a9059cbb146103bd578063be30f0a6146103dc575f5ffd5b8063715018a61461033b57806379cc67901461034f5780638456cb591461036e575f5ffd5b80632ff2e9dc116101525780633f4ba83a1161012d5780633f4ba83a146102b457806342966c68146102ca5780635c975abb146102e957806370a0823114610307575f5ffd5b80632ff2e9dc14610267578063313ce567146102845780633deaa3231461029f575f5ffd5b806306fdde03146101a3578063095ea7b3146101cd5780630fb7be3b146101fc57806314a8bd0d1461021f57806318160ddd1461023457806323b872dd14610248575f5ffd5b3661019f57005b5f5ffd5b3480156101ae575f5ffd5b506101b76104d7565b6040516101c49190610ff3565b60405180910390f35b3480156101d8575f5ffd5b506101ec6101e7366004611043565b610567565b60405190151581526020016101c4565b348015610207575f5ffd5b5061021160065481565b6040519081526020016101c4565b34801561022a575f5ffd5b5061021161271081565b34801561023f575f5ffd5b50600254610211565b348015610253575f5ffd5b506101ec61026236600461106b565b610580565b348015610272575f5ffd5b5061021169d3c21bcecceda100000081565b34801561028f575f5ffd5b50604051601281526020016101c4565b3480156102aa575f5ffd5b5061021160075481565b3480156102bf575f5ffd5b506102c86105a3565b005b3480156102d5575f5ffd5b506102c86102e43660046110a5565b6105b5565b3480156102f4575f5ffd5b50600554600160a01b900460ff166101ec565b348015610312575f5ffd5b506102116103213660046110bc565b6001600160a01b03165f9081526020819052604090205490565b348015610346575f5ffd5b506102c86105c2565b34801561035a575f5ffd5b506102c8610369366004611043565b6105d3565b348015610379575f5ffd5b506102c86105ec565b34801561038d575f5ffd5b506005546040516001600160a01b0390911681526020016101c4565b3480156103b4575f5ffd5b506101b76105fc565b3480156103c8575f5ffd5b506101ec6103d7366004611043565b61060b565b3480156103e7575f5ffd5b506102c86103f63660046110dc565b610618565b6102c86106bb565b34801561040e575f5ffd5b5061021161041d3660046110a5565b610877565b34801561042d575f5ffd5b5061021161043c3660046110fc565b6001600160a01b039182165f90815260016020908152604080832093909416825291909152205490565b348015610471575f5ffd5b506102c8610884565b348015610485575f5ffd5b506102116104943660046110a5565b610932565b3480156104a4575f5ffd5b506102c86104b33660046110bc565b61093f565b3480156104c3575f5ffd5b506102c86104d23660046110a5565b610979565b6060600380546104e69061112d565b80601f01602080910402602001604051908101604052809291908181526020018280546105129061112d565b801561055d5780601f106105345761010080835404028352916020019161055d565b820191905f5260205f20905b81548152906001019060200180831161054057829003601f168201915b5050505050905090565b5f33610574818585610b71565b60019150505b92915050565b5f3361058d858285610b83565b610598858585610bff565b506001949350505050565b6105ab610c5c565b6105b3610c89565b565b6105bf3382610cde565b50565b6105ca610c5c565b6105b35f610d12565b6105de823383610b83565b6105e88282610cde565b5050565b6105f4610c5c565b6105b3610d63565b6060600480546104e69061112d565b5f33610574818585610bff565b610620610c5c565b8082106106745760405162461bcd60e51b815260206004820152601960248201527f4d696e206d757374206265206c657373207468616e206d61780000000000000060448201526064015b60405180910390fd5b6007829055600681905560408051838152602081018390527fc3b054c588847f79425ea04f26a3ddb1f752a74803b52b40b3176bbd61aa37f4910160405180910390a15050565b6106c3610da6565b5f341161071c5760405162461bcd60e51b815260206004820152602160248201527f45544820616d6f756e74206d7573742062652067726561746572207468616e206044820152600360fc1b606482015260840161066b565b60075434101561076e5760405162461bcd60e51b815260206004820152601c60248201527f42656c6f77206d696e696d756d207075726368617365206c696d697400000000604482015260640161066b565b6006543411156107c05760405162461bcd60e51b815260206004820152601e60248201527f45786365656473206d6178696d756d207075726368617365206c696d69740000604482015260640161066b565b5f6107cd61271034611179565b305f9081526020819052604090205490915081111561082e5760405162461bcd60e51b815260206004820152601e60248201527f4e6f7420656e6f756768205944546f6b656e20696e20636f6e74726163740000604482015260640161066b565b610839303383610bff565b604080513481526020810183905233917f717b3e8023d1e89de1aa0201a50dfc4987e09756400c2afd47750ac49a4e62ca910160405180910390a250565b5f61057a61271083611179565b61088c610c5c565b5f61089f6005546001600160a01b031690565b6001600160a01b0316476040515f6040518083038185875af1925050503d805f81146108e6576040519150601f19603f3d011682016040523d82523d5f602084013e6108eb565b606091505b50509050806105bf5760405162461bcd60e51b8152602060048201526013602482015272115512081d1c985b9cd9995c8819985a5b1959606a1b604482015260640161066b565b5f61057a61271083611190565b610947610c5c565b6001600160a01b03811661097057604051631e4fbdf760e01b81525f600482015260240161066b565b6105bf81610d12565b610981610da6565b5f81116109de5760405162461bcd60e51b815260206004820152602560248201527f5944546f6b656e20616d6f756e74206d75737420626520677265617465722074604482015264068616e20360dc1b606482015260840161066b565b335f90815260208190526040902054811115610a3c5760405162461bcd60e51b815260206004820152601a60248201527f4e6f7420656e6f756768205944546f6b656e20746f2073656c6c000000000000604482015260640161066b565b5f610a4961271083611190565b905080471015610a9b5760405162461bcd60e51b815260206004820152601a60248201527f4e6f7420656e6f7567682045544820696e20636f6e7472616374000000000000604482015260640161066b565b610aa6333084610bff565b6040515f90339083908381818185875af1925050503d805f8114610ae5576040519150601f19603f3d011682016040523d82523d5f602084013e610aea565b606091505b5050905080610b315760405162461bcd60e51b8152602060048201526013602482015272115512081d1c985b9cd9995c8819985a5b1959606a1b604482015260640161066b565b604080518381526020810185905233917f0d23b261beae38c0cefdd6de526cfc9257f67c8fcd2552ec70dc7736222399e8910160405180910390a2505050565b610b7e8383836001610dd1565b505050565b6001600160a01b038381165f908152600160209081526040808320938616835292905220545f19811015610bf95781811015610beb57604051637dc7a0d960e11b81526001600160a01b0384166004820152602481018290526044810183905260640161066b565b610bf984848484035f610dd1565b50505050565b6001600160a01b038316610c2857604051634b637e8f60e11b81525f600482015260240161066b565b6001600160a01b038216610c515760405163ec442f0560e01b81525f600482015260240161066b565b610b7e838383610ea3565b6005546001600160a01b031633146105b35760405163118cdaa760e01b815233600482015260240161066b565b610c91610fc9565b6005805460ff60a01b191690557f5db9ee0a495bf2e6ff9c91a7834c1ba4fdd244a5e8aa4e537bd38aeae4b073aa335b6040516001600160a01b03909116815260200160405180910390a1565b6001600160a01b038216610d0757604051634b637e8f60e11b81525f600482015260240161066b565b6105e8825f83610ea3565b600580546001600160a01b038381166001600160a01b0319831681179093556040519116919082907f8be0079c531659141344cd1fd0a4f28419497f9722a3daafe3b4186f6b6457e0905f90a35050565b610d6b610da6565b6005805460ff60a01b1916600160a01b1790557f62e78cea01bee320cd4e420270b5ea74000d11b0c9f74754ebdbfc544b05a258610cc13390565b600554600160a01b900460ff16156105b35760405163d93c066560e01b815260040160405180910390fd5b6001600160a01b038416610dfa5760405163e602df0560e01b81525f600482015260240161066b565b6001600160a01b038316610e2357604051634a1406b160e11b81525f600482015260240161066b565b6001600160a01b038085165f9081526001602090815260408083209387168352929052208290558015610bf957826001600160a01b0316846001600160a01b03167f8c5be1e5ebec7d5bd14f71427d1e84f3dd0314c0f7b2291e5b200ac8c7c3b92584604051610e9591815260200190565b60405180910390a350505050565b6001600160a01b038316610ecd578060025f828254610ec291906111af565b90915550610f3d9050565b6001600160a01b0383165f9081526020819052604090205481811015610f1f5760405163391434e360e21b81526001600160a01b0385166004820152602481018290526044810183905260640161066b565b6001600160a01b0384165f9081526020819052604090209082900390555b6001600160a01b038216610f5957600280548290039055610f77565b6001600160a01b0382165f9081526020819052604090208054820190555b816001600160a01b0316836001600160a01b03167fddf252ad1be2c89b69c2b068fc378daa952ba7f163c4a11628f55a4df523b3ef83604051610fbc91815260200190565b60405180910390a3505050565b600554600160a01b900460ff166105b357604051638dfc202b60e01b815260040160405180910390fd5b602081525f82518060208401528060208501604085015e5f604082850101526040601f19601f83011684010191505092915050565b80356001600160a01b038116811461103e575f5ffd5b919050565b5f5f60408385031215611054575f5ffd5b61105d83611028565b946020939093013593505050565b5f5f5f6060848603121561107d575f5ffd5b61108684611028565b925061109460208501611028565b929592945050506040919091013590565b5f602082840312156110b5575f5ffd5b5035919050565b5f602082840312156110cc575f5ffd5b6110d582611028565b9392505050565b5f5f604083850312156110ed575f5ffd5b50508035926020909101359150565b5f5f6040838503121561110d575f5ffd5b61111683611028565b915061112460208401611028565b90509250929050565b600181811c9082168061114157607f821691505b60208210810361115f57634e487b7160e01b5f52602260045260245ffd5b50919050565b634e487b7160e01b5f52601160045260245ffd5b808202811582820484141761057a5761057a611165565b5f826111aa57634e487b7160e01b5f52601260045260245ffd5b500490565b8082018082111561057a5761057a61116556fea2646970667358221220ecbf7b7f17fcadc7f982a8230f0389d898d863ff482ffcb3125be749827504a564736f6c634300081c0033",
  "linkReferences": {},
  "deployedLinkReferences": {},
  "immutableReferences": {},
  "inputSourceName": "project/contracts/YDToken.sol",
  "buildInfoId": "solc-0_8_28-d243532bf5884e16b5f452a8e22451e069d15389"
}