{
  "_format": "hh3-artifact-1",
  "contractName": "CourseCertificate",
  "sourceName": "contracts/CourseCertificate.sol",
  "abi": [
    {
      "inputs": [
        {
          "internalType": "address",
          "name": "_courseContractAddress",
          "type": "address"
        }
      ],
      "stateMutability": "nonpayable",
      "type": "constructor"
    },
    {
      "inputs": [],
      "name": "ERC721EnumerableForbiddenBatchMint",
      "type": "error"
    },
    {
      "inputs": [
        {
          "internalType": "address",
          "name": "sender",
          "type": "address"
        },
        {
          "internalType": "uint256",
          "name": "tokenId",
          "type": "uint256"
        },
        {
          "internalType": "address",
          "name": "owner",
          "type": "address"
        }
      ],
      "name": "ERC721IncorrectOwner",
      "type": "error"
    },
    {
      "inputs": [
        {
          "internalType": "address",
          "name": "operator",
          "type": "address"
        },
        {
          "internalType": "uint256",
          "name": "tokenId",
          "type": "uint256"
        }
      ],
      "name": "ERC721InsufficientApproval",
      "type": "error"
    },
    {
      "inputs": [
        {
          "internalType": "address",
          "name": "approver",
          "type": "address"
        }
      ],
      "name": "ERC721InvalidApprover",
      "type": "error"
    },
    {
      "inputs": [
        {
          "internalType": "address",
          "name": "operator",
          "type": "address"
        }
      ],
      "name": "ERC721InvalidOperator",
      "type": "error"
    },
    {
      "inputs": [
        {
          "internalType": "address",
          "name": "owner",
          "type": "address"
        }
      ],
      "name": "ERC721InvalidOwner",
      "type": "error"
    },
    {
      "inputs": [
        {
          "internalType": "address",
          "name": "receiver",
          "type": "address"
        }
      ],
      "name": "ERC721InvalidReceiver",
      "type": "error"
    },
    {
      "inputs": [
        {
          "internalType": "address",
          "name": "sender",
          "type": "address"
        }
      ],
      "name": "ERC721InvalidSender",
      "type": "error"
    },
    {
      "inputs": [
        {
          "internalType": "uint256",
          "name": "tokenId",
          "type": "uint256"
        }
      ],
      "name": "ERC721NonexistentToken",
      "type": "error"
    },
    {
      "inputs": [
        {
          "internalType": "address",
          "name": "owner",
          "type": "address"
        },
        {
          "internalType": "uint256",
          "name": "index",
          "type": "uint256"
        }
      ],
      "name": "ERC721OutOfBoundsIndex",
      "type": "error"
    },
    {
      "inputs": [
        {
          "internalType": "address",
          "name": "owner",
          "type": "address"
        }
      ],
      "name": "OwnableInvalidOwner",
      "type": "error"
    },
    {
      "inputs": [
        {
          "internalType": "address",
          "name": "account",
          "type": "address"
        }
      ],
      "name": "OwnableUnauthorizedAccount",
      "type": "error"
    },
    {
      "anonymous": false,
      "inputs": [
        {
          "indexed": true,
          "internalType": "address",
          "name": "owner",
          "type": "address"
        },
        {
          "indexed": true,
          "internalType": "address",
          "name": "approved",
          "type": "address"
        },
        {
          "indexed": true,
          "internalType": "uint256",
          "name": "tokenId",
          "type": "uint256"
        }
      ],
      "name": "Approval",
      "type": "event"
    },
    {
      "anonymous": false,
      "inputs": [
        {
          "indexed": true,
          "internalType": "address",
          "name": "owner",
          "type": "address"
        },
        {
          "indexed": true,
          "internalType": "address",
          "name": "operator",
          "type": "address"
        },
        {
          "indexed": false,
          "internalType": "bool",
          "name": "approved",
          "type": "bool"
        }
      ],
      "name": "ApprovalForAll",
      "type": "event"
    },
    {
      "anonymous": false,
      "inputs": [
        {
          "indexed": false,
          "internalType": "uint256",
          "name": "_fromTokenId",
          "type": "uint256"
        },
        {
          "indexed": false,
          "internalType": "uint256",
          "name": "_toTokenId",
          "type": "uint256"
        }
      ],
      "name": "BatchMetadataUpdate",
      "type": "event"
    },
    {
      "anonymous": false,
      "inputs": [
        {
          "indexed": true,
          "internalType": "uint256",
          "name": "tokenId",
          "type": "uint256"
        },
        {
          "indexed": true,
          "internalType": "uint256",
          "name": "courseId",
          "type": "uint256"
        },
        {
          "indexed": true,
          "internalType": "address",
          "name": "student",
          "type": "address"
        },
        {
          "indexed": false,
          "internalType": "uint256",
          "name": "issueDate",
          "type": "uint256"
        }
      ],
      "name": "CertificateIssued",
      "type": "event"
    },
    {
      "anonymous": false,
      "inputs": [
        {
          "indexed": true,
          "internalType": "uint256",
          "name": "courseId",
          "type": "uint256"
        },
        {
          "indexed": false,
          "internalType": "bool",
          "name": "enabled",
          "type": "bool"
        }
      ],
      "name": "CertificatesEnabledForCourse",
      "type": "event"
    },
    {
      "anonymous": false,
      "inputs": [
        {
          "indexed": false,
          "internalType": "uint256",
          "name": "_tokenId",
          "type": "uint256"
        }
      ],
      "name": "MetadataUpdate",
      "type": "event"
    },
    {
      "anonymous": false,
      "inputs": [
        {
          "indexed": true,
          "internalType": "address",
          "name": "previousOwner",
          "type": "address"
        },
        {
          "indexed": true,
          "internalType": "address",
          "name": "newOwner",
          "type": "address"
        }
      ],
      "name": "OwnershipTransferred",
      "type": "event"
    },
    {
      "anonymous": false,
      "inputs": [
        {
          "indexed": true,
          "internalType": "address",
          "name": "from",
          "type": "address"
        },
        {
          "indexed": true,
          "internalType": "address",
          "name": "to",
          "type": "address"
        },
        {
          "indexed": true,
          "internalType": "uint256",
          "name": "tokenId",
          "type": "uint256"
        }
      ],
      "name": "Transfer",
      "type": "event"
    },
    {
      "inputs": [
        {
          "internalType": "address",
          "name": "to",
          "type": "address"
        },
        {
          "internalType": "uint256",
          "name": "tokenId",
          "type": "uint256"
        }
      ],
      "name": "approve",
      "outputs": [],
      "stateMutability": "nonpayable",
      "type": "function"
    },
    {
      "inputs": [
        {
          "internalType": "address",
          "name": "owner",
          "type": "address"
        }
      ],
      "name": "balanceOf",
      "outputs": [
        {
          "internalType": "uint256",
          "name": "",
          "type": "uint256"
        }
      ],
      "stateMutability": "view",
      "type": "function"
    },
    {
      "inputs": [
        {
          "internalType": "uint256",
          "name": "",
          "type": "uint256"
        }
      ],
      "name": "certificates",
      "outputs": [
        {
          "internalType": "uint256",
          "name": "courseId",
          "type": "uint256"
        },
        {
          "internalType": "address",
          "name": "student",
          "type": "address"
        },
        {
          "internalType": "uint256",
          "name": "issueDate",
          "type": "uint256"
        },
        {
          "internalType": "string",
          "name": "courseName",
          "type": "string"
        },
        {
          "internalType": "string",
          "name": "instructorName",
          "type": "string"
        }
      ],
      "stateMutability": "view",
      "type": "function"
    },
    {
      "inputs": [
        {
          "internalType": "uint256",
          "name": "",
          "type": "uint256"
        }
      ],
      "name": "certificatesEnabled",
      "outputs": [
        {
          "internalType": "bool",
          "name": "",
          "type": "bool"
        }
      ],
      "stateMutability": "view",
      "type": "function"
    },
    {
      "inputs": [
        {
          "internalType": "uint256",
          "name": "_courseId",
          "type": "uint256"
        },
        {
          "internalType": "string",
          "name": "_instructorName",
          "type": "string"
        }
      ],
      "name": "claimCertificate",
      "outputs": [
        {
          "internalType": "uint256",
          "name": "",
          "type": "uint256"
        }
      ],
      "stateMutability": "nonpayable",
      "type": "function"
    },
    {
      "inputs": [],
      "name": "courseContract",
      "outputs": [
        {
          "internalType": "contract Course",
          "name": "",
          "type": "address"
        }
      ],
      "stateMutability": "view",
      "type": "function"
    },
    {
      "inputs": [
        {
          "internalType": "uint256",
          "name": "",
          "type": "uint256"
        }
      ],
      "name": "courseMetadataURI",
      "outputs": [
        {
          "internalType": "string",
          "name": "",
          "type": "string"
        }
      ],
      "stateMutability": "view",
      "type": "function"
    },
    {
      "inputs": [
        {
          "internalType": "uint256",
          "name": "_courseId",
          "type": "uint256"
        }
      ],
      "name": "disableCertificates",
      "outputs": [],
      "stateMutability": "nonpayable",
      "type": "function"
    },
    {
      "inputs": [
        {
          "internalType": "uint256",
          "name": "_courseId",
          "type": "uint256"
        },
        {
          "internalType": "string",
          "name": "_metadataURI",
          "type": "string"
        }
      ],
      "name": "enableCertificates",
      "outputs": [],
      "stateMutability": "nonpayable",
      "type": "function"
    },
    {
      "inputs": [
        {
          "internalType": "uint256",
          "name": "tokenId",
          "type": "uint256"
        }
      ],
      "name": "getApproved",
      "outputs": [
        {
          "internalType": "address",
          "name": "",
          "type": "address"
        }
      ],
      "stateMutability": "view",
      "type": "function"
    },
    {
      "inputs": [
        {
          "internalType": "uint256",
          "name": "_tokenId",
          "type": "uint256"
        }
      ],
      "name": "getCertificate",
      "outputs": [
        {
          "components": [
            {
              "internalType": "uint256",
              "name": "courseId",
              "type": "uint256"
            },
            {
              "internalType": "address",
              "name": "student",
              "type": "address"
            },
            {
              "internalType": "uint256",
              "name": "issueDate",
              "type": "uint256"
            },
            {
              "internalType": "string",
              "name": "courseName",
              "type": "string"
            },
            {
              "internalType": "string",
              "name": "instructorName",
              "type": "string"
            }
          ],
          "internalType": "struct CourseCertificate.CertificateInfo",
          "name": "",
          "type": "tuple"
        }
      ],
      "stateMutability": "view",
      "type": "function"
    },
    {
      "inputs": [
        {
          "internalType": "address",
          "name": "_owner",
          "type": "address"
        }
      ],
      "name": "getCertificatesOf",
      "outputs": [
        {
          "internalType": "uint256[]",
          "name": "",
          "type": "uint256[]"
        }
      ],
      "stateMutability": "view",
      "type": "function"
    },
    {
      "inputs": [
        {
          "internalType": "uint256",
          "name": "_courseId",
          "type": "uint256"
        },
        {
          "internalType": "address",
          "name": "_student",
          "type": "address"
        }
      ],
      "name": "getStudentCertificate",
      "outputs": [
        {
          "internalType": "uint256",
          "name": "",
          "type": "uint256"
        }
      ],
      "stateMutability": "view",
      "type": "function"
    },
    {
      "inputs": [
        {
          "internalType": "uint256",
          "name": "_courseId",
          "type": "uint256"
        },
        {
          "internalType": "address",
          "name": "_student",
          "type": "address"
        }
      ],
      "name": "hasCertificate",
      "outputs": [
        {
          "internalType": "bool",
          "name": "",
          "type": "bool"
        }
      ],
      "stateMutability": "view",
      "type": "function"
    },
    {
      "inputs": [
        {
          "internalType": "address",
          "name": "owner",
          "type": "address"
        },
        {
          "internalType": "address",
          "name": "operator",
          "type": "address"
        }
      ],
      "name": "isApprovedForAll",
      "outputs": [
        {
          "internalType": "bool",
          "name": "",
          "type": "bool"
        }
      ],
      "stateMutability": "view",
      "type": "function"
    },
    {
      "inputs": [
        {
          "internalType": "uint256",
          "name": "_courseId",
          "type": "uint256"
        },
        {
          "internalType": "address",
          "name": "_student",
          "type": "address"
        },
        {
          "internalType": "string",
          "name": "_instructorName",
          "type": "string"
        }
      ],
      "name": "issueCertificate",
      "outputs": [
        {
          "internalType": "uint256",
          "name": "",
          "type": "uint256"
        }
      ],
      "stateMutability": "nonpayable",
      "type": "function"
    },
    {
      "inputs": [],
      "name": "name",
      "outputs": [
        {
          "internalType": "string",
          "name": "",
          "type": "string"
        }
      ],
      "stateMutability": "view",
      "type": "function"
    },
    {
      "inputs": [],
      "name": "owner",
      "outputs": [
        {
          "internalType": "address",
          "name": "",
          "type": "address"
        }
      ],
      "stateMutability": "view",
      "type": "function"
    },
    {
      "inputs": [
        {
          "internalType": "uint256",
          "name": "tokenId",
          "type": "uint256"
        }
      ],
      "name": "ownerOf",
      "outputs": [
        {
          "internalType": "address",
          "name": "",
          "type": "address"
        }
      ],
      "stateMutability": "view",
      "type": "function"
    },
    {
      "inputs": [],
      "name": "renounceOwnership",
      "outputs": [],
      "stateMutability": "nonpayable",
      "type": "function"
    },
    {
      "inputs": [
        {
          "internalType": "address",
          "name": "from",
          "type": "address"
        },
        {
          "internalType": "address",
          "name": "to",
          "type": "address"
        },
        {
          "internalType": "uint256",
          "name": "tokenId",
          "type": "uint256"
        }
      ],
      "name": "safeTransferFrom",
      "outputs": [],
      "stateMutability": "nonpayable",
      "type": "function"
    },
    {
      "inputs": [
        {
          "internalType": "address",
          "name": "from",
          "type": "address"
        },
        {
          "internalType": "address",
          "name": "to",
          "type": "address"
        },
        {
          "internalType": "uint256",
          "name": "tokenId",
          "type": "uint256"
        },
        {
          "internalType": "bytes",
          "name": "data",
          "type": "bytes"
        }
      ],
      "name": "safeTransferFrom",
      "outputs": [],
      "stateMutability": "nonpayable",
      "type": "function"
    },
    {
      "inputs": [
        {
          "internalType": "address",
          "name": "operator",
          "type": "address"
        },
        {
          "internalType": "bool",
          "name": "approved",
          "type": "bool"
        }
      ],
      "name": "setApprovalForAll",
      "outputs": [],
      "stateMutability": "nonpayable",
      "type": "function"
    },
    {
      "inputs": [
        {
          "internalType": "address",
          "name": "_courseContractAddress",
          "type": "address"
        }
      ],
      "name": "setCourseContract",
      "outputs": [],
      "stateMutability": "nonpayable",
      "type": "function"
    },
    {
      "inputs": [
        {
          "internalType": "uint256",
          "name": "",
          "type": "uint256"
        },
        {
          "internalType": "address",
          "name": "",
          "type": "address"
        }
      ],
      "name": "studentCertificates",
      "outputs": [
        {
          "internalType": "uint256",
          "name": "",
          "type": "uint256"
        }
      ],
      "stateMutability": "view",
      "type": "function"
    },
    {
      "inputs": [
        {
          "internalType": "bytes4",
          "name": "interfaceId",
          "type": "bytes4"
        }
      ],
      "name": "supportsInterface",
      "outputs": [
        {
          "internalType": "bool",
          "name": "",
          "type": "bool"
        }
      ],
      "stateMutability": "view",
      "type": "function"
    },
    {
      "inputs": [],
      "name": "symbol",
      "outputs": [
        {
          "internalType": "string",
          "name": "",
          "type": "string"
        }
      ],
      "stateMutability": "view",
      "type": "function"
    },
    {
      "inputs": [
        {
          "internalType": "uint256",
          "name": "index",
          "type": "uint256"
        }
      ],
      "name": "tokenByIndex",
      "outputs": [
        {
          "internalType": "uint256",
          "name": "",
          "type": "uint256"
        }
      ],
      "stateMutability": "view",
      "type": "function"
    },
    {
      "inputs": [
        {
          "internalType": "address",
          "name": "owner",
          "type": "address"
        },
        {
          "internalType": "uint256",
          "name": "index",
          "type": "uint256"
        }
      ],
      "name": "tokenOfOwnerByIndex",
      "outputs": [
        {
          "internalType": "uint256",
          "name": "",
          "type": "uint256"
        }
      ],
      "stateMutability": "view",
      "type": "function"
    },
    {
      "inputs": [
        {
          "internalType": "uint256",
          "name": "tokenId",
          "type": "uint256"
        }
      ],
      "name": "tokenURI",
      "outputs": [
        {
          "internalType": "string",
          "name": "",
          "type": "string"
        }
      ],
      "stateMutability": "view",
      "type": "function"
    },
    {
      "inputs": [],
      "name": "totalSupply",
      "outputs": [
        {
          "internalType": "uint256",
          "name": "",
          "type": "uint256"
        }
      ],
      "stateMutability": "view",
      "type": "function"
    },
    {
      "inputs": [
        {
          "internalType": "address",
          "name": "from",
          "type": "address"
        },
        {
          "internalType": "address",
          "name": "to",
          "type": "address"
        },
        {
          "internalType": "uint256",
          "name": "tokenId",
          "type": "uint256"
        }
      ],
      "name": "transferFrom",
      "outputs": [],
      "stateMutability": "nonpayable",
      "type": "function"
    },
    {
      "inputs": [
        {
          "internalType": "address",
          "name": "newOwner",
          "type": "address"
        }
      ],
      "name": "transferOwnership",
      "outputs": [],
      "stateMutability": "nonpayable",
      "type": "function"
    }
  ],
  "bytecode": "0x608060405234801561000f575f5ffd5b50604051612ebd380380612ebd83398101604081905261002e91610142565b3360405180604001604052806012815260200171436f7572736520436572746966696361746560701b8152506040518060400160405280600481526020016310d1549560e21b815250815f90816100859190610207565b5060016100928282610207565b5050506001600160a01b0381166100c257604051631e4fbdf760e01b81525f600482015260240160405180910390fd5b6100cb816100f1565b50600c80546001600160a01b0319166001600160a01b03929092169190911790556102c1565b600b80546001600160a01b038381166001600160a01b0319831681179093556040519116919082907f8be0079c531659141344cd1fd0a4f28419497f9722a3daafe3b4186f6b6457e0905f90a35050565b5f60208284031215610152575f5ffd5b81516001600160a01b0381168114610168575f5ffd5b9392505050565b634e487b7160e01b5f52604160045260245ffd5b600181811c9082168061019757607f821691505b6020821081036101b557634e487b7160e01b5f52602260045260245ffd5b50919050565b601f82111561020257805f5260205f20601f840160051c810160208510156101e05750805b601f840160051c820191505b818110156101ff575f81556001016101ec565b50505b505050565b81516001600160401b038111156102205761022061016f565b6102348161022e8454610183565b846101bb565b6020601f821160018114610266575f831561024f5750848201515b5f19600385901b1c1916600184901b1784556101ff565b5f84815260208120601f198516915b828110156102955787850151825560209485019460019092019101610275565b50848210156102b257868401515f19600387901b60f8161c191681555b50505050600190811b01905550565b612bef806102ce5f395ff3fe608060405234801561000f575f5ffd5b50600436106101f2575f3560e01c80636352211e1161011457806394e69bf6116100a9578063b60b506d11610079578063b60b506d146104b9578063b88d4fde146104cc578063c87b56dd146104df578063e985e9c5146104f2578063f2fde38b14610505575f5ffd5b806394e69bf614610454578063954fe2ce1461046757806395d89b411461049e578063a22cb465146104a6575f5ffd5b80637579662f116100e45780637579662f146103e85780638226c205146103fb5780638da5cb5b146104305780638f7fba9f14610441575f5ffd5b80636352211e14610396578063663b3e22146103a957806370a08231146103cd578063715018a6146103e0575f5ffd5b806323ffd1d31161018a57806342842e0e1161015a57806342842e0e1461033d5780634f6ccce71461035057806351640fee146103635780635d3db98014610383575f5ffd5b806323ffd1d3146102cd5780632f745c59146102e05780633cc0146d146102f35780633f83aa3a14610313575f5ffd5b806316f31f58116101c557806316f31f581461027357806318160ddd146102955780631c509f31146102a757806323b872dd146102ba575f5ffd5b806301ffc9a7146101f657806306fdde031461021e578063081812fc14610233578063095ea7b31461025e575b5f5ffd5b61020961020436600461235e565b610518565b60405190151581526020015b60405180910390f35b610226610528565b60405161021591906123a7565b6102466102413660046123b9565b6105b7565b6040516001600160a01b039091168152602001610215565b61027161026c3660046123e4565b6105de565b005b6102096102813660046123b9565b600f6020525f908152604090205460ff1681565b6009545b604051908152602001610215565b6102266102b53660046123b9565b6105ed565b6102716102c836600461240e565b610684565b6102716102db366004612538565b610712565b6102996102ee3660046123e4565b61088e565b61030661030136600461257b565b6108f1565b6040516102159190612596565b6102996103213660046125d8565b600e60209081525f928352604080842090915290825290205481565b61027161034b36600461240e565b610985565b61029961035e3660046123b9565b6109a4565b6103766103713660046123b9565b6109f9565b6040516102159190612606565b61027161039136600461257b565b610c01565b6102466103a43660046123b9565b610c2b565b6103bc6103b73660046123b9565b610c35565b60405161021595949392919061266d565b6102996103db36600461257b565b610d7b565b610271610dc0565b6102996103f63660046126b7565b610dd3565b6102996104093660046125d8565b5f918252600e602090815260408084206001600160a01b0393909316845291905290205490565b600b546001600160a01b0316610246565b600c54610246906001600160a01b031681565b610299610462366004612538565b6111f4565b6102096104753660046125d8565b5f918252600e602090815260408084206001600160a01b03939093168452919052902054151590565b6102266115a3565b6102716104b4366004612718565b6115b2565b6102716104c73660046123b9565b6115bd565b6102716104da366004612744565b6116d6565b6102266104ed3660046123b9565b6116ee565b6102096105003660046127be565b6116f9565b61027161051336600461257b565b611726565b5f61052282611763565b92915050565b60605f8054610536906127ea565b80601f0160208091040260200160405190810160405280929190818152602001828054610562906127ea565b80156105ad5780601f10610584576101008083540402835291602001916105ad565b820191905f5260205f20905b81548152906001019060200180831161059057829003601f168201915b5050505050905090565b5f6105c182611787565b505f828152600460205260409020546001600160a01b0316610522565b6105e98282336117bf565b5050565b60106020525f908152604090208054610605906127ea565b80601f0160208091040260200160405190810160405280929190818152602001828054610631906127ea565b801561067c5780601f106106535761010080835404028352916020019161067c565b820191905f5260205f20905b81548152906001019060200180831161065f57829003601f168201915b505050505081565b6001600160a01b0382166106b257604051633250574960e11b81525f60048201526024015b60405180910390fd5b5f6106be8383336117cc565b9050836001600160a01b0316816001600160a01b03161461070c576040516364283d7b60e01b81526001600160a01b03808616600483015260248201849052821660448201526064016106a9565b50505050565b600c54604051630b91e28d60e01b8152600481018490525f916001600160a01b031690630b91e28d906024015f60405180830381865afa158015610758573d5f5f3e3d5ffd5b505050506040513d5f823e601f3d908101601f1916820160405261077f919081019061288a565b60a08101519091506001600160a01b031633146107de5760405162461bcd60e51b815260206004820152601a60248201527f4f6e6c7920696e7374727563746f722063616e20656e61626c6500000000000060448201526064016106a9565b8060c001516108265760405162461bcd60e51b8152602060048201526014602482015273436f75727365206973206e6f742061637469766560601b60448201526064016106a9565b5f838152600f60209081526040808320805460ff191660011790556010909152902061085283826129fb565b506040516001815283907f925f02963ba9f5e97e5ef695cd158db2fc0ceef09de3cc8cb25cb51088a9eafe9060200160405180910390a2505050565b5f61089883610d7b565b82106108c95760405163295f44f760e21b81526001600160a01b0384166004820152602481018390526044016106a9565b506001600160a01b03919091165f908152600760209081526040808320938352929052205490565b60605f6108fd83610d7b565b90505f816001600160401b038111156109185761091861244c565b604051908082528060200260200182016040528015610941578160200160208202803683370190505b5090505f5b8281101561097d57610958858261088e565b82828151811061096a5761096a612ab5565b6020908102919091010152600101610946565b509392505050565b61099f83838360405180602001604052805f8152506116d6565b505050565b5f6109ae60095490565b82106109d65760405163295f44f760e21b81525f6004820152602481018390526044016106a9565b600982815481106109e9576109e9612ab5565b905f5260205f2001549050919050565b610a316040518060a001604052805f81526020015f6001600160a01b031681526020015f815260200160608152602001606081525090565b5f828152600260205260409020546001600160a01b0316610a945760405162461bcd60e51b815260206004820152601a60248201527f436572746966696361746520646f6573206e6f7420657869737400000000000060448201526064016106a9565b5f828152600d6020908152604091829020825160a0810184528154815260018201546001600160a01b031692810192909252600281015492820192909252600382018054919291606084019190610aea906127ea565b80601f0160208091040260200160405190810160405280929190818152602001828054610b16906127ea565b8015610b615780601f10610b3857610100808354040283529160200191610b61565b820191905f5260205f20905b815481529060010190602001808311610b4457829003601f168201915b50505050508152602001600482018054610b7a906127ea565b80601f0160208091040260200160405190810160405280929190818152602001828054610ba6906127ea565b8015610bf15780601f10610bc857610100808354040283529160200191610bf1565b820191905f5260205f20905b815481529060010190602001808311610bd457829003601f168201915b5050505050815250509050919050565b610c096117e0565b600c80546001600160a01b0319166001600160a01b0392909216919091179055565b5f61052282611787565b600d6020525f9081526040902080546001820154600283015460038401805493946001600160a01b0390931693919291610c6e906127ea565b80601f0160208091040260200160405190810160405280929190818152602001828054610c9a906127ea565b8015610ce55780601f10610cbc57610100808354040283529160200191610ce5565b820191905f5260205f20905b815481529060010190602001808311610cc857829003601f168201915b505050505090806004018054610cfa906127ea565b80601f0160208091040260200160405190810160405280929190818152602001828054610d26906127ea565b8015610d715780601f10610d4857610100808354040283529160200191610d71565b820191905f5260205f20905b815481529060010190602001808311610d5457829003601f168201915b5050505050905085565b5f6001600160a01b038216610da5576040516322718ad960e21b81525f60048201526024016106a9565b506001600160a01b03165f9081526003602052604090205490565b610dc86117e0565b610dd15f61180d565b565b600c54604051630b91e28d60e01b8152600481018590525f9182916001600160a01b0390911690630b91e28d906024015f60405180830381865afa158015610e1d573d5f5f3e3d5ffd5b505050506040513d5f823e601f3d908101601f19168201604052610e44919081019061288a565b60a08101519091506001600160a01b03163314610ea35760405162461bcd60e51b815260206004820152601960248201527f4f6e6c7920696e7374727563746f722063616e2069737375650000000000000060448201526064016106a9565b5f858152600f602052604090205460ff16610f005760405162461bcd60e51b815260206004820152601860248201527f436572746966696361746573206e6f7420656e61626c6564000000000000000060448201526064016106a9565b600c546040516251eaaf60e31b8152600481018790526001600160a01b0386811660248301529091169063028f557890604401602060405180830381865afa158015610f4e573d5f5f3e3d5ffd5b505050506040513d601f19601f82011682018060405250810190610f729190612ac9565b610fc95760405162461bcd60e51b815260206004820152602260248201527f53747564656e74206d75737420707572636861736520636f75727365206669726044820152611cdd60f21b60648201526084016106a9565b5f858152600e602090815260408083206001600160a01b0388168452909152902054156110385760405162461bcd60e51b815260206004820152601a60248201527f436572746966696361746520616c72656164792069737375656400000000000060448201526064016106a9565b60118054905f61104783612af8565b9091555050601154611059858261185e565b5f8681526010602052604081208054611071906127ea565b80601f016020809104026020016040519081016040528092919081815260200182805461109d906127ea565b80156110e85780601f106110bf576101008083540402835291602001916110e8565b820191905f5260205f20905b8154815290600101906020018083116110cb57829003601f168201915b505050505090506110f98282611877565b6040805160a0810182528881526001600160a01b038881166020808401918252428486019081528882015160608601908152608086018c90525f898152600d909352959091208451815591516001830180546001600160a01b0319169190941617909255905160028201559151909190600382019061117890826129fb565b506080820151600482019061118d90826129fb565b5050505f878152600e602090815260408083206001600160a01b038a168085529083529281902085905551428152899185917f44d2765313c0aead1e88cc66bc51a16cd5f8c8ac3a307098fcc3622600738104910160405180910390a45095945050505050565b5f828152600f602052604081205460ff166112625760405162461bcd60e51b815260206004820152602860248201527f436572746966696361746573206e6f7420656e61626c656420666f72207468696044820152677320636f7572736560c01b60648201526084016106a9565b600c546040516251eaaf60e31b8152600481018590523360248201526001600160a01b039091169063028f557890604401602060405180830381865afa1580156112ae573d5f5f3e3d5ffd5b505050506040513d601f19601f820116820180604052508101906112d29190612ac9565b61131e5760405162461bcd60e51b815260206004820152601a60248201527f4d75737420707572636861736520636f7572736520666972737400000000000060448201526064016106a9565b5f838152600e60209081526040808320338452909152902054156113845760405162461bcd60e51b815260206004820152601b60248201527f436572746966696361746520616c726561647920636c61696d6564000000000060448201526064016106a9565b600c54604051630b91e28d60e01b8152600481018590525f916001600160a01b031690630b91e28d906024015f60405180830381865afa1580156113ca573d5f5f3e3d5ffd5b505050506040513d5f823e601f3d908101601f191682016040526113f1919081019061288a565b601180549192505f61140283612af8565b9091555050601154611414338261185e565b5f858152601060205260408120805461142c906127ea565b80601f0160208091040260200160405190810160405280929190818152602001828054611458906127ea565b80156114a35780601f1061147a576101008083540402835291602001916114a3565b820191905f5260205f20905b81548152906001019060200180831161148657829003601f168201915b505050505090506114b48282611877565b6040805160a081018252878152336020808301918252428385019081528782015160608501908152608085018b90525f888152600d909352949091208351815591516001830180546001600160a01b0319166001600160a01b039092169190911790555160028201559151909190600382019061153190826129fb565b506080820151600482019061154690826129fb565b5050505f868152600e60209081526040808320338085529083529281902085905551428152889185917f44d2765313c0aead1e88cc66bc51a16cd5f8c8ac3a307098fcc3622600738104910160405180910390a450949350505050565b606060018054610536906127ea565b6105e93383836118c6565b600c54604051630b91e28d60e01b8152600481018390525f916001600160a01b031690630b91e28d906024015f60405180830381865afa158015611603573d5f5f3e3d5ffd5b505050506040513d5f823e601f3d908101601f1916820160405261162a919081019061288a565b60a08101519091506001600160a01b031633146116895760405162461bcd60e51b815260206004820152601b60248201527f4f6e6c7920696e7374727563746f722063616e2064697361626c65000000000060448201526064016106a9565b5f828152600f60209081526040808320805460ff191690555191825283917f925f02963ba9f5e97e5ef695cd158db2fc0ceef09de3cc8cb25cb51088a9eafe910160405180910390a25050565b6116e1848484610684565b61070c3385858585611964565b606061052282611a8c565b6001600160a01b039182165f90815260056020908152604080832093909416825291909152205460ff1690565b61172e6117e0565b6001600160a01b03811661175757604051631e4fbdf760e01b81525f60048201526024016106a9565b6117608161180d565b50565b5f6001600160e01b0319821663780e9d6360e01b1480610522575061052282611b8f565b5f818152600260205260408120546001600160a01b03168061052257604051637e27328960e01b8152600481018490526024016106a9565b61099f8383836001611bb3565b5f6117d8848484611cb7565b949350505050565b600b546001600160a01b03163314610dd15760405163118cdaa760e01b81523360048201526024016106a9565b600b80546001600160a01b038381166001600160a01b0319831681179093556040519116919082907f8be0079c531659141344cd1fd0a4f28419497f9722a3daafe3b4186f6b6457e0905f90a35050565b6105e9828260405180602001604052805f815250611d82565b5f82815260066020526040902061188e82826129fb565b506040518281527ff8e1a15aba9398e019f0b49df1a4fde98ee17ae345cb5f6b5e2c27f5033e8ce79060200160405180910390a15050565b6001600160a01b0382166118f857604051630b61174360e31b81526001600160a01b03831660048201526024016106a9565b6001600160a01b038381165f81815260056020908152604080832094871680845294825291829020805460ff191686151590811790915591519182527f17307eab39ab6107e8899845ad3d59bd9653f200f220920489ca2b5937696c31910160405180910390a3505050565b6001600160a01b0383163b15611a8557604051630a85bd0160e11b81526001600160a01b0384169063150b7a02906119a6908890889087908790600401612b10565b6020604051808303815f875af19250505080156119e0575060408051601f3d908101601f191682019092526119dd91810190612b4c565b60015b611a47573d808015611a0d576040519150601f19603f3d011682016040523d82523d5f602084013e611a12565b606091505b5080515f03611a3f57604051633250574960e11b81526001600160a01b03851660048201526024016106a9565b805160208201fd5b6001600160e01b03198116630a85bd0160e11b14611a8357604051633250574960e11b81526001600160a01b03851660048201526024016106a9565b505b5050505050565b6060611a9782611787565b505f8281526006602052604081208054611ab0906127ea565b80601f0160208091040260200160405190810160405280929190818152602001828054611adc906127ea565b8015611b275780601f10611afe57610100808354040283529160200191611b27565b820191905f5260205f20905b815481529060010190602001808311611b0a57829003601f168201915b505050505090505f611b4360408051602081019091525f815290565b905080515f03611b54575092915050565b815115611b86578082604051602001611b6e929190612b7e565b60405160208183030381529060405292505050919050565b6117d884611d99565b5f6001600160e01b03198216632483248360e11b1480610522575061052282611e0a565b8080611bc757506001600160a01b03821615155b15611c88575f611bd684611787565b90506001600160a01b03831615801590611c025750826001600160a01b0316816001600160a01b031614155b8015611c155750611c1381846116f9565b155b15611c3e5760405163a9fbf51f60e01b81526001600160a01b03841660048201526024016106a9565b8115611c865783856001600160a01b0316826001600160a01b03167f8c5be1e5ebec7d5bd14f71427d1e84f3dd0314c0f7b2291e5b200ac8c7c3b92560405160405180910390a45b505b50505f90815260046020526040902080546001600160a01b0319166001600160a01b0392909216919091179055565b5f5f611cc4858585611e59565b90506001600160a01b038116611d2057611d1b84600980545f838152600a60205260408120829055600182018355919091527f6e1540171b6c0c960b71a7020d9f60077f6af931a8bbf590da0223dacf75c7af0155565b611d43565b846001600160a01b0316816001600160a01b031614611d4357611d438185611f4b565b6001600160a01b038516611d5f57611d5a84611fc8565b6117d8565b846001600160a01b0316816001600160a01b0316146117d8576117d8858561206f565b611d8c83836120bd565b61099f335f858585611964565b6060611da482611787565b505f611dba60408051602081019091525f815290565b90505f815111611dd85760405180602001604052805f815250611e03565b80611de28461211e565b604051602001611df3929190612b7e565b6040516020818303038152906040525b9392505050565b5f6001600160e01b031982166380ac58cd60e01b1480611e3a57506001600160e01b03198216635b5e139f60e01b145b8061052257506301ffc9a760e01b6001600160e01b0319831614610522565b5f828152600260205260408120546001600160a01b0390811690831615611e8557611e858184866121ad565b6001600160a01b03811615611ebf57611ea05f855f5f611bb3565b6001600160a01b0381165f90815260036020526040902080545f190190555b6001600160a01b03851615611eed576001600160a01b0385165f908152600360205260409020805460010190555b5f8481526002602052604080822080546001600160a01b0319166001600160a01b0389811691821790925591518793918516917fddf252ad1be2c89b69c2b068fc378daa952ba7f163c4a11628f55a4df523b3ef91a4949350505050565b5f611f5583610d7b565b5f838152600860209081526040808320546001600160a01b0388168452600790925290912091925090818314611faa575f83815260208281526040808320548584528184208190558352600890915290208290555b5f938452600860209081526040808620869055938552525081205550565b6009545f90611fd990600190612b92565b5f838152600a60205260408120546009805493945090928490811061200057612000612ab5565b905f5260205f2001549050806009838154811061201f5761201f612ab5565b5f918252602080832090910192909255828152600a9091526040808220849055858252812055600980548061205657612056612ba5565b600190038181905f5260205f20015f9055905550505050565b5f600161207b84610d7b565b6120859190612b92565b6001600160a01b039093165f908152600760209081526040808320868452825280832085905593825260089052919091209190915550565b6001600160a01b0382166120e657604051633250574960e11b81525f60048201526024016106a9565b5f6120f283835f6117cc565b90506001600160a01b0381161561099f576040516339e3563760e11b81525f60048201526024016106a9565b60605f61212a83612211565b60010190505f816001600160401b038111156121485761214861244c565b6040519080825280601f01601f191660200182016040528015612172576020820181803683370190505b5090508181016020015b5f19016f181899199a1a9b1b9c1cb0b131b232b360811b600a86061a8153600a850494508461217c57509392505050565b6121b88383836122e8565b61099f576001600160a01b0383166121e657604051637e27328960e01b8152600481018290526024016106a9565b60405163177e802f60e01b81526001600160a01b0383166004820152602481018290526044016106a9565b5f8072184f03e93ff9f4daa797ed6e38ed64bf6a1f0160401b831061224f5772184f03e93ff9f4daa797ed6e38ed64bf6a1f0160401b830492506040015b6d04ee2d6d415b85acef8100000000831061227b576d04ee2d6d415b85acef8100000000830492506020015b662386f26fc10000831061229957662386f26fc10000830492506010015b6305f5e10083106122b1576305f5e100830492506008015b61271083106122c557612710830492506004015b606483106122d7576064830492506002015b600a83106105225760010192915050565b5f6001600160a01b038316158015906117d85750826001600160a01b0316846001600160a01b03161480612321575061232184846116f9565b806117d85750505f908152600460205260409020546001600160a01b03908116911614919050565b6001600160e01b031981168114611760575f5ffd5b5f6020828403121561236e575f5ffd5b8135611e0381612349565b5f81518084528060208401602086015e5f602082860101526020601f19601f83011685010191505092915050565b602081525f611e036020830184612379565b5f602082840312156123c9575f5ffd5b5035919050565b6001600160a01b0381168114611760575f5ffd5b5f5f604083850312156123f5575f5ffd5b8235612400816123d0565b946020939093013593505050565b5f5f5f60608486031215612420575f5ffd5b833561242b816123d0565b9250602084013561243b816123d0565b929592945050506040919091013590565b634e487b7160e01b5f52604160045260245ffd5b60405161018081016001600160401b03811182821017156124835761248361244c565b60405290565b604051601f8201601f191681016001600160401b03811182821017156124b1576124b161244c565b604052919050565b5f6001600160401b038211156124d1576124d161244c565b50601f01601f191660200190565b5f6124f16124ec846124b9565b612489565b9050828152838383011115612504575f5ffd5b828260208301375f602084830101529392505050565b5f82601f830112612529575f5ffd5b611e03838335602085016124df565b5f5f60408385031215612549575f5ffd5b8235915060208301356001600160401b03811115612565575f5ffd5b6125718582860161251a565b9150509250929050565b5f6020828403121561258b575f5ffd5b8135611e03816123d0565b602080825282518282018190525f918401906040840190835b818110156125cd5783518352602093840193909201916001016125af565b509095945050505050565b5f5f604083850312156125e9575f5ffd5b8235915060208301356125fb816123d0565b809150509250929050565b602081528151602082015260018060a01b036020830151166040820152604082015160608201525f606083015160a0608084015261264760c0840182612379565b90506080840151601f198483030160a08501526126648282612379565b95945050505050565b85815260018060a01b038516602082015283604082015260a060608201525f61269960a0830185612379565b82810360808401526126ab8185612379565b98975050505050505050565b5f5f5f606084860312156126c9575f5ffd5b8335925060208401356126db816123d0565b915060408401356001600160401b038111156126f5575f5ffd5b6127018682870161251a565b9150509250925092565b8015158114611760575f5ffd5b5f5f60408385031215612729575f5ffd5b8235612734816123d0565b915060208301356125fb8161270b565b5f5f5f5f60808587031215612757575f5ffd5b8435612762816123d0565b93506020850135612772816123d0565b92506040850135915060608501356001600160401b03811115612793575f5ffd5b8501601f810187136127a3575f5ffd5b6127b2878235602084016124df565b91505092959194509250565b5f5f604083850312156127cf575f5ffd5b82356127da816123d0565b915060208301356125fb816123d0565b600181811c908216806127fe57607f821691505b60208210810361281c57634e487b7160e01b5f52602260045260245ffd5b50919050565b5f82601f830112612831575f5ffd5b815161283f6124ec826124b9565b818152846020838601011115612853575f5ffd5b8160208501602083015e5f918101602001919091529392505050565b805161287a816123d0565b919050565b805161287a8161270b565b5f6020828403121561289a575f5ffd5b81516001600160401b038111156128af575f5ffd5b820161018081850312156128c1575f5ffd5b6128c9612460565b8151815260208201516001600160401b038111156128e5575f5ffd5b6128f186828501612822565b60208301525060408201516001600160401b0381111561290f575f5ffd5b61291b86828501612822565b60408301525060608201516001600160401b03811115612939575f5ffd5b61294586828501612822565b6060830152506080828101519082015261296160a0830161286f565b60a082015261297260c0830161287f565b60c082015260e0828101519082015261010080830151908201526101208083015190820152610140808301519082015261016091820151918101919091529392505050565b601f82111561099f57805f5260205f20601f840160051c810160208510156129dc5750805b601f840160051c820191505b81811015611a85575f81556001016129e8565b81516001600160401b03811115612a1457612a1461244c565b612a2881612a2284546127ea565b846129b7565b6020601f821160018114612a5a575f8315612a435750848201515b5f19600385901b1c1916600184901b178455611a85565b5f84815260208120601f198516915b82811015612a895787850151825560209485019460019092019101612a69565b5084821015612aa657868401515f19600387901b60f8161c191681555b50505050600190811b01905550565b634e487b7160e01b5f52603260045260245ffd5b5f60208284031215612ad9575f5ffd5b8151611e038161270b565b634e487b7160e01b5f52601160045260245ffd5b5f60018201612b0957612b09612ae4565b5060010190565b6001600160a01b03858116825284166020820152604081018390526080606082018190525f90612b4290830184612379565b9695505050505050565b5f60208284031215612b5c575f5ffd5b8151611e0381612349565b5f81518060208401855e5f93019283525090919050565b5f6117d8612b8c8386612b67565b84612b67565b8181038181111561052257610522612ae4565b634e487b7160e01b5f52603160045260245ffdfea26469706673582212202511ac1322a6fee3868b8abe5e2d11b47952f2da1d2a755f58e34e37e606649d64736f6c634300081c0033",
  "linkReferences": {},
  "deployedLinkReferences": {},
  "immutableReferences": {},
  "inputSourceName": "project/contracts/CourseCertificate.sol",
  "buildInfoId": "solc-0_8_28-402342387ebb8e36aabdd5a2f21e9cd0d4c27fea"
}