{
  "_format": "hh3-artifact-1",
  "contractName": "YDTStaking",
  "sourceName": "contracts/YDTStaking.sol",
  "abi": [
    {
      "inputs": [
        {
          "internalType": "address",
          "name": "_ydtToken",
          "type": "address"
        }
      ],
      "stateMutability": "nonpayable",
      "type": "constructor"
    },
    {
      "inputs": [
        {
          "internalType": "address",
          "name": "owner",
          "type": "address"
        }
      ],
      "name": "OwnableInvalidOwner",
      "type": "error"
    },
    {
      "inputs": [
        {
          "internalType": "address",
          "name": "account",
          "type": "address"
        }
      ],
      "name": "OwnableUnauthorizedAccount",
      "type": "error"
    },
    {
      "inputs": [],
      "name": "ReentrancyGuardReentrantCall",
      "type": "error"
    },
    {
      "inputs": [
        {
          "internalType": "address",
          "name": "token",
          "type": "address"
        }
      ],
      "name": "SafeERC20FailedOperation",
      "type": "error"
    },
    {
      "anonymous": false,
      "inputs": [
        {
          "indexed": false,
          "internalType": "uint256",
          "name": "newAmount",
          "type": "uint256"
        }
      ],
      "name": "MaxStakeAmountUpdated",
      "type": "event"
    },
    {
      "anonymous": false,
      "inputs": [
        {
          "indexed": false,
          "internalType": "uint256",
          "name": "newAmount",
          "type": "uint256"
        }
      ],
      "name": "MinStakeAmountUpdated",
      "type": "event"
    },
    {
      "anonymous": false,
      "inputs": [
        {
          "indexed": false,
          "internalType": "uint256",
          "name": "newDuration",
          "type": "uint256"
        }
      ],
      "name": "MinStakeDurationUpdated",
      "type": "event"
    },
    {
      "anonymous": false,
      "inputs": [
        {
          "indexed": true,
          "internalType": "address",
          "name": "previousOwner",
          "type": "address"
        },
        {
          "indexed": true,
          "internalType": "address",
          "name": "newOwner",
          "type": "address"
        }
      ],
      "name": "OwnershipTransferred",
      "type": "event"
    },
    {
      "anonymous": false,
      "inputs": [
        {
          "indexed": false,
          "internalType": "uint256",
          "name": "amount",
          "type": "uint256"
        }
      ],
      "name": "RewardPoolFunded",
      "type": "event"
    },
    {
      "anonymous": false,
      "inputs": [
        {
          "indexed": false,
          "internalType": "uint256",
          "name": "newRate",
          "type": "uint256"
        }
      ],
      "name": "RewardRateUpdated",
      "type": "event"
    },
    {
      "anonymous": false,
      "inputs": [
        {
          "indexed": true,
          "internalType": "address",
          "name": "user",
          "type": "address"
        },
        {
          "indexed": false,
          "internalType": "uint256",
          "name": "rewards",
          "type": "uint256"
        }
      ],
      "name": "RewardsClaimed",
      "type": "event"
    },
    {
      "anonymous": false,
      "inputs": [
        {
          "indexed": true,
          "internalType": "address",
          "name": "user",
          "type": "address"
        },
        {
          "indexed": false,
          "internalType": "uint256",
          "name": "amount",
          "type": "uint256"
        }
      ],
      "name": "Staked",
      "type": "event"
    },
    {
      "anonymous": false,
      "inputs": [
        {
          "indexed": true,
          "internalType": "address",
          "name": "user",
          "type": "address"
        },
        {
          "indexed": false,
          "internalType": "uint256",
          "name": "amount",
          "type": "uint256"
        },
        {
          "indexed": false,
          "internalType": "uint256",
          "name": "rewards",
          "type": "uint256"
        }
      ],
      "name": "Unstaked",
      "type": "event"
    },
    {
      "inputs": [],
      "name": "annualRewardRate",
      "outputs": [
        {
          "internalType": "uint256",
          "name": "",
          "type": "uint256"
        }
      ],
      "stateMutability": "view",
      "type": "function"
    },
    {
      "inputs": [
        {
          "internalType": "address",
          "name": "user",
          "type": "address"
        }
      ],
      "name": "calculateRewards",
      "outputs": [
        {
          "internalType": "uint256",
          "name": "",
          "type": "uint256"
        }
      ],
      "stateMutability": "view",
      "type": "function"
    },
    {
      "inputs": [],
      "name": "claimRewards",
      "outputs": [],
      "stateMutability": "nonpayable",
      "type": "function"
    },
    {
      "inputs": [],
      "name": "emergencyWithdrawRewardPool",
      "outputs": [],
      "stateMutability": "nonpayable",
      "type": "function"
    },
    {
      "inputs": [
        {
          "internalType": "uint256",
          "name": "amount",
          "type": "uint256"
        }
      ],
      "name": "fundRewardPool",
      "outputs": [],
      "stateMutability": "nonpayable",
      "type": "function"
    },
    {
      "inputs": [
        {
          "internalType": "address",
          "name": "user",
          "type": "address"
        }
      ],
      "name": "getStakeInfo",
      "outputs": [
        {
          "internalType": "uint256",
          "name": "amount",
          "type": "uint256"
        },
        {
          "internalType": "uint256",
          "name": "startTime",
          "type": "uint256"
        },
        {
          "internalType": "uint256",
          "name": "stakeDuration",
          "type": "uint256"
        },
        {
          "internalType": "uint256",
          "name": "pendingRewards",
          "type": "uint256"
        },
        {
          "internalType": "bool",
          "name": "canUnstake",
          "type": "bool"
        }
      ],
      "stateMutability": "view",
      "type": "function"
    },
    {
      "inputs": [],
      "name": "getStakingStats",
      "outputs": [
        {
          "internalType": "uint256",
          "name": "_totalStaked",
          "type": "uint256"
        },
        {
          "internalType": "uint256",
          "name": "_rewardPool",
          "type": "uint256"
        },
        {
          "internalType": "uint256",
          "name": "_annualRewardRate",
          "type": "uint256"
        },
        {
          "internalType": "uint256",
          "name": "_minStakeDuration",
          "type": "uint256"
        },
        {
          "internalType": "uint256",
          "name": "_minStakeAmount",
          "type": "uint256"
        },
        {
          "internalType": "uint256",
          "name": "_maxStakeAmount",
          "type": "uint256"
        }
      ],
      "stateMutability": "view",
      "type": "function"
    },
    {
      "inputs": [
        {
          "internalType": "address",
          "name": "user",
          "type": "address"
        }
      ],
      "name": "getTotalPendingRewards",
      "outputs": [
        {
          "internalType": "uint256",
          "name": "",
          "type": "uint256"
        }
      ],
      "stateMutability": "view",
      "type": "function"
    },
    {
      "inputs": [],
      "name": "maxStakeAmount",
      "outputs": [
        {
          "internalType": "uint256",
          "name": "",
          "type": "uint256"
        }
      ],
      "stateMutability": "view",
      "type": "function"
    },
    {
      "inputs": [],
      "name": "minStakeAmount",
      "outputs": [
        {
          "internalType": "uint256",
          "name": "",
          "type": "uint256"
        }
      ],
      "stateMutability": "view",
      "type": "function"
    },
    {
      "inputs": [],
      "name": "minStakeDuration",
      "outputs": [
        {
          "internalType": "uint256",
          "name": "",
          "type": "uint256"
        }
      ],
      "stateMutability": "view",
      "type": "function"
    },
    {
      "inputs": [],
      "name": "owner",
      "outputs": [
        {
          "internalType": "address",
          "name": "",
          "type": "address"
        }
      ],
      "stateMutability": "view",
      "type": "function"
    },
    {
      "inputs": [],
      "name": "renounceOwnership",
      "outputs": [],
      "stateMutability": "nonpayable",
      "type": "function"
    },
    {
      "inputs": [],
      "name": "rewardPool",
      "outputs": [
        {
          "internalType": "uint256",
          "name": "",
          "type": "uint256"
        }
      ],
      "stateMutability": "view",
      "type": "function"
    },
    {
      "inputs": [
        {
          "internalType": "uint256",
          "name": "newRate",
          "type": "uint256"
        }
      ],
      "name": "setAnnualRewardRate",
      "outputs": [],
      "stateMutability": "nonpayable",
      "type": "function"
    },
    {
      "inputs": [
        {
          "internalType": "uint256",
          "name": "newAmount",
          "type": "uint256"
        }
      ],
      "name": "setMaxStakeAmount",
      "outputs": [],
      "stateMutability": "nonpayable",
      "type": "function"
    },
    {
      "inputs": [
        {
          "internalType": "uint256",
          "name": "newAmount",
          "type": "uint256"
        }
      ],
      "name": "setMinStakeAmount",
      "outputs": [],
      "stateMutability": "nonpayable",
      "type": "function"
    },
    {
      "inputs": [
        {
          "internalType": "uint256",
          "name": "newDuration",
          "type": "uint256"
        }
      ],
      "name": "setMinStakeDuration",
      "outputs": [],
      "stateMutability": "nonpayable",
      "type": "function"
    },
    {
      "inputs": [
        {
          "internalType": "uint256",
          "name": "amount",
          "type": "uint256"
        }
      ],
      "name": "stake",
      "outputs": [],
      "stateMutability": "nonpayable",
      "type": "function"
    },
    {
      "inputs": [
        {
          "internalType": "address",
          "name": "",
          "type": "address"
        }
      ],
      "name": "stakes",
      "outputs": [
        {
          "internalType": "uint256",
          "name": "amount",
          "type": "uint256"
        },
        {
          "internalType": "uint256",
          "name": "startTime",
          "type": "uint256"
        },
        {
          "internalType": "uint256",
          "name": "lastClaimTime",
          "type": "uint256"
        },
        {
          "internalType": "uint256",
          "name": "pendingRewards",
          "type": "uint256"
        }
      ],
      "stateMutability": "view",
      "type": "function"
    },
    {
      "inputs": [],
      "name": "totalStaked",
      "outputs": [
        {
          "internalType": "uint256",
          "name": "",
          "type": "uint256"
        }
      ],
      "stateMutability": "view",
      "type": "function"
    },
    {
      "inputs": [
        {
          "internalType": "address",
          "name": "newOwner",
          "type": "address"
        }
      ],
      "name": "transferOwnership",
      "outputs": [],
      "stateMutability": "nonpayable",
      "type": "function"
    },
    {
      "inputs": [
        {
          "internalType": "uint256",
          "name": "amount",
          "type": "uint256"
        }
      ],
      "name": "unstake",
      "outputs": [],
      "stateMutability": "nonpayable",
      "type": "function"
    },
    {
      "inputs": [],
      "name": "ydtToken",
      "outputs": [
        {
          "internalType": "contract IERC20",
          "name": "",
          "type": "address"
        }
      ],
      "stateMutability": "view",
      "type": "function"
    }
  ],
  "bytecode": "0x60a06040526103e860025562093a8060035568056bc75e2d6310000060045569d3c21bcecceda1000000600555348015610037575f5ffd5b5060405161115238038061115283398101604081905261005691610140565b338061007c57604051631e4fbdf760e01b81525f60048201526024015b60405180910390fd5b610085816100f1565b50600180556001600160a01b0381166100e05760405162461bcd60e51b815260206004820152601560248201527f496e76616c696420746f6b656e206164647265737300000000000000000000006044820152606401610073565b6001600160a01b031660805261016d565b5f80546001600160a01b038381166001600160a01b0319831681178455604051919092169283917f8be0079c531659141344cd1fd0a4f28419497f9722a3daafe3b4186f6b6457e09190a35050565b5f60208284031215610150575f5ffd5b81516001600160a01b0381168114610166575f5ffd5b9392505050565b608051610faa6101a85f395f818161032f015281816103a80152818161044b015281816105ed015281816107a00152610a3a0152610faa5ff3fe608060405234801561000f575f5ffd5b5060043610610153575f3560e01c8063817b1cd2116100bf578063c345315311610079578063c3453153146102ed578063cb28099a1461032a578063dcc2a55e14610351578063eb4af04514610364578063f188768414610377578063f2fde38b14610380575f5ffd5b8063817b1cd2146102485780638da5cb5b14610251578063a694fc3a14610275578063a8c478ba14610288578063aafc5d471461029b578063c1dd6084146102ae575f5ffd5b806351b4ea011161011057806351b4ea01146101ff5780635d80ca32146102125780635fec5c641461021b57806364ab86751461022457806366666aa914610237578063715018a614610240575f5ffd5b806316934fc4146101575780631715d015146101b05780631d583e0d146101c75780632856a2b4146101dc5780632e17de78146101e4578063372500ab146101f7575b5f5ffd5b61018b610165366004610ec0565b60086020525f908152604090208054600182015460028301546003909301549192909184565b6040805194855260208501939093529183015260608201526080015b60405180910390f35b6101b960025481565b6040519081526020016101a7565b6101da6101d5366004610eed565b610393565b005b6101da61041d565b6101da6101f2366004610eed565b610475565b6101da61065b565b6101da61020d366004610eed565b61080a565b6101b960055481565b6101b960035481565b6101b9610232366004610ec0565b610889565b6101b960065481565b6101da610929565b6101b960075481565b5f546001600160a01b03165b6040516001600160a01b0390911681526020016101a7565b6101da610283366004610eed565b61093a565b6101b9610296366004610ec0565b610ae9565b6101da6102a9366004610eed565b610b1d565b600754600654600254600354600454600554604080519687526020870195909552938501929092526060840152608083015260a082015260c0016101a7565b6103006102fb366004610ec0565b610ba2565b6040805195865260208601949094529284019190915260608301521515608082015260a0016101a7565b61025d7f000000000000000000000000000000000000000000000000000000000000000081565b6101da61035f366004610eed565b610c58565b6101da610372366004610eed565b610c95565b6101b960045481565b6101da61038e366004610ec0565b610cd2565b61039b610d0c565b6103d06001600160a01b037f000000000000000000000000000000000000000000000000000000000000000016333084610d38565b8060065f8282546103e19190610f18565b90915550506040518181527fb1d234dd8081b3e00565c8b359ca6fa117fc7b024f75d85b6830b190bef5c76b906020015b60405180910390a150565b610425610d0c565b600680545f9091556104726104415f546001600160a01b031690565b6001600160a01b037f0000000000000000000000000000000000000000000000000000000000000000169083610da5565b50565b61047d610ddb565b335f90815260086020526040902080548211156104e15760405162461bcd60e51b815260206004820152601a60248201527f496e73756666696369656e74207374616b656420616d6f756e7400000000000060448201526064015b60405180910390fd5b60035481600101546104f39190610f18565b4210156105425760405162461bcd60e51b815260206004820152601e60248201527f4d696e696d756d207374616b65206475726174696f6e206e6f74206d6574000060448201526064016104d8565b5f816003015461055133610889565b61055b9190610f18565b5f6003840155600654909150819081111561057557506006545b8015610592578060065f82825461058c9190610f2b565b90915550505b83835f015f8282546105a49190610f2b565b909155505042600284015582545f036105be575f60018401555b8360075f8282546105cf9190610f2b565b909155506106149050336105e38387610f18565b6001600160a01b037f0000000000000000000000000000000000000000000000000000000000000000169190610da5565b604080518581526020810183905233917f7fc4727e062e336010f2c282598ef5f14facb3de68cf8195c2f23e1454b2b74e910160405180910390a250505061047260018055565b610663610ddb565b335f90815260086020526040902080546106b05760405162461bcd60e51b815260206004820152600e60248201526d139bc81cdd185ad948199bdd5b9960921b60448201526064016104d8565b5f81600301546106bf33610889565b6106c99190610f18565b90505f81116107105760405162461bcd60e51b81526020600482015260136024820152724e6f207265776172647320746f20636c61696d60681b60448201526064016104d8565b600654819081111561072157506006545b5f81116107675760405162461bcd60e51b815260206004820152601460248201527352657761726420706f6f6c20697320656d70747960601b60448201526064016104d8565b8060065f8282546107789190610f2b565b9091555061078890508183610f2b565b60038401554260028401556107c76001600160a01b037f0000000000000000000000000000000000000000000000000000000000000000163383610da5565b60405181815233907ffc30cddea38e2bf4d6ea7d3f9ed3b6ad7f176419f4963bd81318067a4aee73fe9060200160405180910390a250505061080860018055565b565b610812610d0c565b6113888111156108545760405162461bcd60e51b815260206004820152600d60248201526c0a4c2e8ca40e8dede40d0d2ced609b1b60448201526064016104d8565b60028190556040518181527f41d466ebd06fb97e7786086ac8b69b7eb7da798592036251291d34e9791cde0190602001610412565b6001600160a01b0381165f908152600860209081526040808320815160808101835281548082526001830154948201949094526002820154928101929092526003015460608201529082036108e057505f92915050565b5f8160400151426108f19190610f2b565b90505f64496cebb80082600254855f015161090c9190610f3e565b6109169190610f3e565b6109209190610f55565b95945050505050565b610931610d0c565b6108085f610e05565b610942610ddb565b6004548110156109945760405162461bcd60e51b815260206004820152601a60248201527f42656c6f77206d696e696d756d207374616b6520616d6f756e7400000000000060448201526064016104d8565b335f90815260086020526040902060055481546109b2908490610f18565b1115610a005760405162461bcd60e51b815260206004820152601c60248201527f45786365656473206d6178696d756d207374616b6520616d6f756e740000000060448201526064016104d8565b805415610a2d575f610a1133610889565b905080826003015f828254610a269190610f18565b9091555050505b610a626001600160a01b037f000000000000000000000000000000000000000000000000000000000000000016333085610d38565b81815f015f828254610a749190610f18565b909155505060018101545f03610a8b574260018201555b4281600201819055508160075f828254610aa59190610f18565b909155505060405182815233907f9e71bc8eea02a63969f509818f2dafb9254532904319f9dbda79b67bd34a5f3d9060200160405180910390a25061047260018055565b6001600160a01b0381165f90815260086020526040812060030154610b0d83610889565b610b179190610f18565b92915050565b610b25610d0c565b6301e13380811115610b6d5760405162461bcd60e51b81526020600482015260116024820152704475726174696f6e20746f6f206c6f6e6760781b60448201526064016104d8565b60038190556040518181527f9d719db7ccfd52b22b9e7c15a07db6c24551832469d560cbd5455af6951a43a990602001610412565b6001600160a01b0381165f90815260086020908152604080832081516080810183528154808252600183015494820185905260028301549382019390935260039091015460608201529092908190819084610bfd575f610c0c565b6020810151610c0c9042610f2b565b93508060600151610c1c88610889565b610c269190610f18565b92505f8160200151118015610c4c57506003548160200151610c489190610f18565b4210155b91505091939590929450565b610c60610d0c565b60058190556040518181527f54eb4b63d48d1cd0b132ac5f8945d5e7fa77a2238e2bb533ef3ccb95e7be5d2c90602001610412565b610c9d610d0c565b60048190556040518181527f8448c02797b448f4946bc25b3bf925e5556d1df822c944da701c54bab8a3162f90602001610412565b610cda610d0c565b6001600160a01b038116610d0357604051631e4fbdf760e01b81525f60048201526024016104d8565b61047281610e05565b5f546001600160a01b031633146108085760405163118cdaa760e01b81523360048201526024016104d8565b6040516001600160a01b038481166024830152838116604483015260648201839052610d9f9186918216906323b872dd906084015b604051602081830303815290604052915060e01b6020820180516001600160e01b038381831617835250505050610e54565b50505050565b6040516001600160a01b03838116602483015260448201839052610dd691859182169063a9059cbb90606401610d6d565b505050565b600260015403610dfe57604051633ee5aeb560e01b815260040160405180910390fd5b6002600155565b5f80546001600160a01b038381166001600160a01b0319831681178455604051919092169283917f8be0079c531659141344cd1fd0a4f28419497f9722a3daafe3b4186f6b6457e09190a35050565b5f5f60205f8451602086015f885af180610e73576040513d5f823e3d81fd5b50505f513d91508115610e8a578060011415610e97565b6001600160a01b0384163b155b15610d9f57604051635274afe760e01b81526001600160a01b03851660048201526024016104d8565b5f60208284031215610ed0575f5ffd5b81356001600160a01b0381168114610ee6575f5ffd5b9392505050565b5f60208284031215610efd575f5ffd5b5035919050565b634e487b7160e01b5f52601160045260245ffd5b80820180821115610b1757610b17610f04565b81810381811115610b1757610b17610f04565b8082028115828204841417610b1757610b17610f04565b5f82610f6f57634e487b7160e01b5f52601260045260245ffd5b50049056fea264697066735822122081ff6e7905dc9eb6f6a15472cdc85968469d6ab64d906dc2f645c6bc8f68345064736f6c634300081c0033",
  "linkReferences": {},
  "deployedLinkReferences": {},
  "immutableReferences": {
    "908": [
      {
        "length": 32,
        "start": 815
      },
      {
        "length": 32,
        "start": 936
      },
      {
        "length": 32,
        "start": 1099
      },
      {
        "length": 32,
        "start": 1517
      },
      {
        "length": 32,
        "start": 1952
      },
      {
        "length": 32,
        "start": 2618
      }
    ]
  },
  "inputSourceName": "project/contracts/YDTStaking.sol",
  "buildInfoId": "solc-0_8_28-2a4b51fc3d25b9f807eee317f4c2c8db4c376692"
}